:100000000C94D50D0C944E0E0C944E0E0C944E0E7A
:100010000C944E0E0C944E0E0C944E0E0C944E0EF0
:100020000C944E0E0C944E0E0C944E0E0C944E0EE0
:100030000C944E0E0C94A90E0C94E80E0C944E0EDB
:100040000C944E0E0C944E0E0C944E0E0C944E0EC0
:100050000C944E0E0C944E0E0C944E0E0C944E0EB0
:100060000C944E0E0C944E0E0C944E0E0C944E0EA0
:100070005A5501200101003808000000000000006E
:100080000000000000000000000000000000000070
:10009000810045005DFF5E1027FF2AD22B7D210CD9
:1000A00022FB850084008903888D81096F02444208
:1000B00047004501B083B300B10124B925578A1D1B
:1000C0008B0375117811801184118B119311981184
:1000D0009D11A011B011B311B611F111F411F71166
:1000E00000408891D2E4ADB5B6BEBFFF000000006D
:1000F0000000000000000000000000000000000000
:1001000000000000000000000000000000000000EF
:1001100000000000000000000000000000000000DF
:1001200000000000000000000000000000000000CF
:1001300000000000000000000000000000000000BF
:100140000000FF0000000000FF0000000000FF00B2
:1001500000000000FF0000000000FF0000000000A1
:10016000000000000000FF00000000000000000090
:10017000000000000000000000000000000000007F
:10018000000000FF00FF000000FF00FF000000FF74
:1001900000FF000000000000000000000000000060
:1001A000000000000000000000000000000000004F
:1001B000000000000000000000000000000000003F
:1001C000000000000000000000000000000000002F
:1001D00000000000000000FF00FF0000FFFFFFFF25
:1001E000FF0000FF00FF000000FF00FF0000FFFF16
:1001F000FFFFFF0000FF00FF000000000000000004
:1002000000000000000000000000000000000000EE
:1002100000000000FF00000000FFFFFF0000FF00E3
:10022000FF00FF00FF00FF00000000FFFFFF0000D5
:100230000000FF00FF00FF00FF00FF0000FFFFFFC6
:1002400000000000FF0000000000000000000000AF
:10025000000000000000000000000000000000009E
:10026000FFFF0000FF00FFFF0000FF00000000FF95
:1002700000000000FF00000000FF00000000FF0081
:1002800000FFFF00FF0000FFFF0000000000000073
:10029000000000000000000000000000000000005E
:1002A000000000000000000000FF00000000FF0050
:1002B000FF000000FF00FF00000000FF0000000042
:1002C000FF00FF00FF00FF0000FF000000FFFF0035
:1002D000FF0000000000000000000000000000001F
:1002E000000000000000000000000000FF0000000F
:1002F0000000FF0000000000FF0000000000000000
:1003000000000000000000000000000000000000ED
:1003100000000000000000000000000000000000DD
:1003200000000000000000000000000000000000CD
:100330000000000000FF00000000FF0000000000BF
:10034000FF00000000FF0000000000FF00000000B0
:1003500000FF000000000000FF0000000000FF00A0
:100360000000000000FF000000000000000000008E
:100370000000000000000000000000FF000000007E
:100380000000FF0000000000FF000000000000FF70
:100390000000000000FF0000000000FF000000005F
:1003A000FF0000000000FF00000000FF0000000050
:1003B000000000000000000000000000000000003D
:1003C00000000000000000000000FF000000FF002F
:1003D000FF00FF0000FFFFFF00000000FF00000023
:1003E00000FFFFFF0000FF00FF00FF000000FF0014
:1003F00000000000000000000000000000000000FD
:1004000000000000000000000000000000000000EC
:100410000000000000000000FF0000000000FF00DE
:100420000000FFFFFFFFFF000000FF0000000000D2
:10043000FF000000000000000000000000000000BD
:1004400000000000000000000000000000000000AC
:10045000000000000000000000000000000000009C
:10046000000000000000000000000000000000008C
:1004700000000000000000FFFF00000000FFFF0080
:100480000000FFFF0000000000000000000000006E
:10049000000000000000000000000000000000005C
:1004A000000000000000000000000000000000004C
:1004B0000000FFFFFFFFFF00000000000000000041
:1004C000000000000000000000000000000000002C
:1004D000000000000000000000000000000000001C
:1004E000000000000000000000000000000000000C
:1004F00000000000000000000000000000000000FC
:1005000000000000000000FFFF00000000FFFF00EF
:1005100000000000000000000000000000000000DB
:1005200000000000000000000000000000000000CB
:1005300000000000FF00000000FF0000000000FFBE
:1005400000000000FF00000000FF0000000000FFAE
:1005500000000000FF00000000000000000000009C
:10056000000000000000000000000000000000008B
:1005700000000000000000000000FFFF000000FF7E
:100580000000FF0000FF0000FF0000FF0000FF0070
:1005900000FF0000FF0000FF0000FF000000FFFF61
:1005A000000000000000000000000000000000004B
:1005B000000000000000000000000000000000003B
:1005C0000000FF00000000FFFF0000000000FF002F
:1005D00000000000FF0000000000FF00000000001D
:1005E000FF00000000FFFFFF00000000000000000F
:1005F00000000000000000000000000000000000FB
:10060000000000000000000000FFFFFF0000FF00EE
:100610000000FF0000000000FF00000000FF0000DD
:100620000000FF00000000FF00000000FFFFFFFFD0
:10063000FF000000000000000000000000000000BB
:1006400000000000000000000000000000000000AA
:10065000FFFFFFFFFF0000000000FF00000000FFA1
:1006600000000000FFFF000000000000FF00FF008E
:100670000000FF0000FFFFFF00000000000000007E
:10068000000000000000000000000000000000006A
:100690000000000000000000000000FF000000005B
:1006A000FFFF000000FF00FF0000FF0000FF000050
:1006B000FFFFFFFFFF00000000FF0000000000FF41
:1006C000000000000000000000000000000000002A
:1006D000000000000000000000000000000000001A
:1006E000FFFFFFFFFF00FF0000000000FFFFFFFF14
:1006F000000000000000FF0000000000FF00FF00FD
:100700000000FF0000FFFFFF0000000000000000ED
:1007100000000000000000000000000000000000D9
:1007200000000000000000000000FFFF000000FFCC
:1007300000000000FF0000000000FFFFFFFF0000BE
:10074000FF000000FF00FF000000FF0000FFFFFFB0
:100750000000000000000000000000000000000099
:100760000000000000000000000000000000000089
:10077000FFFFFFFFFF0000000000FF00000000FF80
:100780000000000000FF00000000FF00000000006B
:10079000FF0000000000FF0000000000000000005B
:1007A0000000000000000000000000000000000049
:1007B000000000000000000000FFFFFF0000FF003D
:1007C0000000FF00FF000000FF0000FFFFFF00002F
:1007D000FF000000FF00FF000000FF0000FFFFFF20
:1007E0000000000000000000000000000000000009
:1007F00000000000000000000000000000000000F9
:1008000000FFFFFF0000FF000000FF00FF000000EE
:10081000FF0000FFFFFFFF0000000000FF000000DE
:1008200000FF000000FFFF000000000000000000CB
:1008300000000000000000000000000000000000B8
:1008400000000000000000000000000000000000A8
:100850000000000000FFFF00000000FFFF0000009C
:1008600000000000000000FFFF00000000FFFF008C
:100870000000000000000000000000000000000078
:100880000000000000000000000000000000000068
:1008900000000000000000000000000000FFFF005A
:1008A000000000FFFF00000000000000000000FF4B
:1008B000FF00000000FFFF000000FFFF000000003D
:1008C0000000000000000000000000000000000028
:1008D0000000000000000000000000000000000018
:1008E00000FF00000000FF00000000FF000000000B
:1008F0000000FF000000000000FF000000000000FA
:1009000000000000000000000000000000000000E7
:1009100000000000000000000000000000000000D7
:10092000000000000000000000000000FFFFFFFFCB
:10093000FF00000000000000FFFFFFFFFF000000BD
:1009400000000000000000000000000000000000A7
:100950000000000000000000000000000000000097
:10096000000000000000000000000000000000FF88
:10097000000000000000FF000000000000FF000079
:100980000000FF00000000FF000000000000000069
:100990000000000000000000000000000000000057
:1009A0000000000000000000000000000000000047
:1009B00000FFFFFF0000FF000000FF00000000FF3D
:1009C00000000000FF0000000000FF000000000029
:1009D000000000000000FF00000000000000000018
:1009E0000000000000000000000000000000000007
:1009F000000000000000000000FFFFFF0000FF00FB
:100A00000000FF00FF00FFFFFF00FF00FF00FF00EE
:100A1000FF00FFFFFF00FF000000000000FFFFFFDE
:100A200000000000000000000000000000000000C6
:100A300000000000000000000000000000000000B6
:100A400000FFFFFF0000FF000000FF00FF000000AC
:100A5000FF00FFFFFFFFFF00FF000000FF00FF009F
:100A60000000FF00FF000000FF0000000000000089
:100A70000000000000000000000000000000000076
:100A80000000000000000000FFFFFFFF000000FF6B
:100A90000000FF0000FF0000FF0000FFFFFF00005C
:100AA00000FF0000FF0000FF0000FF00FFFFFFFF4E
:100AB0000000000000000000000000000000000036
:100AC0000000000000000000000000000000000026
:100AD00000FFFFFF0000FF000000FF00FF0000001C
:100AE0000000FF0000000000FF0000000000FF0009
:100AF0000000FF0000FFFFFF0000000000000000FA
:100B000000000000000000000000000000000000E5
:100B10000000000000000000FFFFFFFF000000FFDA
:100B20000000FF0000FF0000FF0000FF0000FF00CA
:100B300000FF0000FF0000FF0000FF00FFFFFFFFBD
:100B400000000000000000000000000000000000A5
:100B50000000000000000000000000000000000095
:100B6000FFFFFFFFFF00FF0000000000FF0000008C
:100B70000000FFFFFFFF0000FF0000000000FF007B
:100B800000000000FFFFFFFFFF000000000000006A
:100B90000000000000000000000000000000000055
:100BA0000000000000000000FFFFFFFFFF00FF004B
:100BB00000000000FF0000000000FFFFFFFF00003A
:100BC000FF0000000000FF0000000000FF00000028
:100BD0000000000000000000000000000000000015
:100BE0000000000000000000000000000000000005
:100BF00000FFFFFF0000FF000000FF00FF000000FB
:100C00000000FF0000000000FF0000FFFF00FF00E9
:100C10000000FF0000FFFFFF0000000000000000D8
:100C200000000000000000000000000000000000C4
:100C30000000000000000000FF000000FF00FF00B7
:100C40000000FF00FF000000FF00FFFFFFFFFF00AC
:100C5000FF000000FF00FF000000FF00FF00000099
:100C6000FF00000000000000000000000000000085
:100C70000000000000000000000000000000000074
:100C800000FFFFFF00000000FF0000000000FF0069
:100C900000000000FF0000000000FF000000000056
:100CA000FF00000000FFFFFF000000000000000048
:100CB0000000000000000000000000000000000034
:100CC00000000000000000000000FFFFFF00000027
:100CD00000FF0000000000FF0000000000FF000017
:100CE000000000FF0000FF0000FF000000FFFF0009
:100CF00000000000000000000000000000000000F4
:100D000000000000000000000000000000000000E3
:100D1000FF000000FF00FF0000FF0000FF00FF00D9
:100D20000000FFFF00000000FF00FF000000FF00C8
:100D300000FF0000FF000000FF00000000000000B6
:100D400000000000000000000000000000000000A3
:100D50000000000000000000FF0000000000FF0095
:100D600000000000FF0000000000FF000000000085
:100D7000FF0000000000FF0000000000FFFFFFFF79
:100D8000FF00000000000000000000000000000064
:100D90000000000000000000000000000000000053
:100DA000FF000000FF00FFFF00FFFF00FF00FF004B
:100DB000FF00FF000000FF00FF000000FF00FF0039
:100DC0000000FF00FF000000FF0000000000000026
:100DD0000000000000000000000000000000000013
:100DE0000000000000000000FF000000FF00FF0006
:100DF0000000FF00FFFF0000FF00FF00FF00FF00FA
:100E0000FF0000FFFF00FF000000FF00FF000000E8
:100E1000FF000000000000000000000000000000D3
:100E200000000000000000000000000000000000C2
:100E300000FFFFFF0000FF000000FF00FF000000B8
:100E4000FF00FF000000FF00FF000000FF00FF00A8
:100E50000000FF0000FFFFFF000000000000000096
:100E60000000000000000000000000000000000082
:100E70000000000000000000FFFFFFFF0000FF0077
:100E80000000FF00FF000000FF00FFFFFFFF000069
:100E9000FF0000000000FF0000000000FF00000055
:100EA0000000000000000000000000000000000042
:100EB0000000000000000000000000000000000032
:100EC00000FFFFFF0000FF000000FF00FF00000028
:100ED000FF00FF000000FF00FF00FF00FF00FF0019
:100EE00000FF000000FFFF00FF0000000000000006
:100EF00000000000000000000000000000000000F2
:100F00000000000000000000FFFFFFFF0000FF00E6
:100F10000000FF00FF000000FF00FFFFFFFF0000D8
:100F2000FF00FF000000FF0000FF0000FF000000C6
:100F3000FF000000000000000000000000000000B2
:100F400000000000000000000000000000000000A1
:100F500000FFFFFF0000FF000000FF00FF00000097
:100F6000000000FFFFFF000000000000FF00FF0086
:100F70000000FF0000FFFFFF000000000000000075
:100F80000000000000000000000000000000000061
:100F90000000000000000000FFFFFFFFFF00000056
:100FA000FF0000000000FF0000000000FF00000044
:100FB0000000FF0000000000FF0000000000FF0034
:100FC0000000000000000000000000000000000021
:100FD0000000000000000000000000000000000011
:100FE000FF000000FF00FF000000FF00FF00000006
:100FF000FF00FF000000FF00FF000000FF00FF00F7
:101000000000FF0000FFFFFF0000000000000000E4
:1010100000000000000000000000000000000000D0
:101020000000000000000000FF000000FF00FF00C3
:101030000000FF00FF000000FF00FF000000FF00B5
:1010400000FF00FF000000FF00FF00000000FF00A5
:101050000000000000000000000000000000000090
:101060000000000000000000000000000000000080
:10107000FF000000FF00FF000000FF00FF00000075
:10108000FF00FF000000FF00FF00FF00FF00FF0067
:10109000FF00FF0000FF00FF000000000000000054
:1010A0000000000000000000000000000000000040
:1010B0000000000000000000FF000000FF00FF0033
:1010C0000000FF0000FF00FF00000000FF00000024
:1010D00000FF00FF0000FF000000FF00FF00000015
:1010E000FF00000000000000000000000000000001
:1010F00000000000000000000000000000000000F0
:10110000FF000000FF00FF000000FF0000FF00FFE5
:1011100000000000FF0000000000FF0000000000D1
:10112000FF0000000000FF000000000000000000C1
:1011300000000000000000000000000000000000AF
:101140000000000000000000FFFFFFFFFF000000A4
:101150000000FF00000000FF00000000FF00000092
:1011600000FF00000000FF0000000000FFFFFFFF85
:10117000FF00000000000000000000000000000070
:101180000000000000000000000000FFFFFF000062
:1011900000FF0000000000FF0000000000FF000052
:1011A000000000FF0000000000FF0000000000FF42
:1011B0000000000000FF0000000000FFFFFF000033
:1011C000000000000000000000000000000000001F
:1011D0000000000000000000FF000000000000FF11
:1011E0000000000000FF000000000000FF00000001
:1011F000000000FF0000000000FF000000000000F1
:10120000FF000000000000000000000000000000DF
:101210000000000000000000000000FFFFFF0000D1
:10122000000000FF0000000000FF0000000000FFC1
:101230000000000000FF0000000000FF00000000B0
:1012400000FF0000000000FF000000FFFFFF0000A3
:10125000000000000000000000000000000000008E
:1012600000000000FF00000000FF00FF0000FF0082
:101270000000FF000000000000000000000000006F
:10128000000000000000000000000000000000005E
:10129000000000000000000000000000000000004E
:1012A000000000000000000000000000000000003E
:1012B000000000000000000000000000000000002E
:1012C000000000000000000000000000000000001E
:1012D000000000000000000000000000000000000E
:1012E000FFFFFFFFFF000000000000000000000003
:1012F000000000FF000000000000FF0000000000F0
:1013000000FF0000000000000000000000000000DE
:1013100000000000000000000000000000000000CD
:1013200000000000000000000000000000000000BD
:1013300000000000000000000000000000000000AD
:1013400000000000000000000000000000FFFFFFA0
:10135000000000000000FF0000FFFFFFFF00FF0093
:101360000000FF0000FFFFFFFF0000000000000082
:10137000000000000000000000000000000000006D
:101380000000000000000000FF0000000000FF005F
:1013900000000000FFFFFFFF0000FF000000FF0053
:1013A000FF000000FF00FF000000FF00FFFFFFFF45
:1013B000000000000000000000000000000000002D
:1013C000000000000000000000000000000000001D
:1013D00000000000000000000000000000FFFFFF10
:1013E0000000FF000000FF00FF0000000000FF0001
:1013F0000000FF0000FFFFFF0000000000000000F1
:1014000000000000000000000000000000000000DC
:10141000000000000000000000000000FF000000CD
:101420000000FF0000FFFFFFFF00FF000000FF00C3
:10143000FF000000FF00FF000000FF0000FFFFFFB3
:10144000FF0000000000000000000000000000009D
:10145000000000000000000000000000000000008C
:1014600000000000000000000000000000FFFFFF7F
:101470000000FF000000FF00FFFFFFFF0000FF0073
:101480000000000000FFFFFF00000000000000005F
:10149000000000000000000000000000000000004C
:1014A00000000000000000000000FFFF000000FF3F
:1014B0000000FF0000FF00000000FFFFFF00000031
:1014C00000FF0000000000FF0000000000FF00001F
:1014D000000000000000000000000000000000000C
:1014E00000000000000000000000000000000000FC
:1014F00000000000000000000000000000FFFFFFEF
:101500000000FF000000FF00FF000000FF00FF00E0
:101510000000FF0000FFFFFFFF0000000000FF00D1
:1015200000FFFFFF000000000000000000000000BE
:101530000000000000000000FF0000000000FF00AD
:1015400000000000FFFFFFFF0000FF000000FF00A1
:10155000FF000000FF00FF000000FF00FF00000090
:10156000FF0000000000000000000000000000007C
:10157000000000000000000000000000000000006B
:101580000000FF00000000000000000000FFFF005E
:1015900000000000FF0000000000FF00000000004D
:1015A000FF00000000FFFFFF00000000000000003F
:1015B000000000000000000000000000000000002B
:1015C000000000000000000000000000FF0000001C
:1015D00000000000000000FFFF0000000000FF000E
:1015E00000000000FF0000000000FF0000000000FD
:1015F000FF0000FF0000FF000000FFFF00000000F0
:1016000000000000000000000000000000000000DA
:10161000FF0000000000FF0000000000FF000000CD
:10162000FF00FF0000FF0000FFFFFF000000FF00C1
:1016300000FF0000FF000000FF00000000000000AD
:10164000000000000000000000000000000000009A
:10165000000000000000000000FFFF00000000008C
:10166000FF0000000000FF0000000000FF0000007D
:101670000000FF0000000000FF00000000FFFFFF6F
:10168000000000000000000000000000000000005A
:10169000000000000000000000000000000000004A
:1016A000000000000000000000000000FFFF00FF3D
:1016B0000000FF00FF00FF00FF00FF00FF00FF0031
:1016C000FF00FF00FF00FF00FF000000000000001F
:1016D000000000000000000000000000000000000A
:1016E00000000000000000000000000000000000FA
:1016F00000000000FF00FFFF0000FFFF0000FF00F0
:10170000FF000000FF00FF000000FF00FF000000DE
:10171000FF000000000000000000000000000000CA
:1017200000000000000000000000000000000000B9
:1017300000000000000000000000000000FFFFFFAC
:101740000000FF000000FF00FF000000FF00FF009E
:101750000000FF0000FFFFFF00000000000000008D
:101760000000000000000000000000000000000079
:101770000000000000000000000000000000000069
:1017800000000000FFFFFFFF0000FF000000FF005F
:10179000FF000000FF00FF000000FF00FFFFFFFF51
:1017A0000000FF0000000000FF000000000000003B
:1017B0000000000000000000000000000000000029
:1017C00000000000000000000000000000FFFFFF1C
:1017D000FF00FF000000FF00FF000000FF00FF000F
:1017E0000000FF0000FFFFFFFF0000000000FF00FF
:1017F00000000000FF0000000000000000000000EA
:1018000000000000000000000000000000000000D8
:1018100000000000FF00FFFF0000FFFF0000FF00CE
:10182000FF0000000000FF0000000000FF000000BB
:1018300000000000000000000000000000000000A8
:101840000000000000000000000000000000000098
:1018500000000000000000000000000000FFFFFF8B
:10186000FF00FF000000000000FFFFFF000000007D
:101870000000FF00FFFFFFFF00000000000000006D
:101880000000000000000000000000000000000058
:1018900000000000000000000000FF000000000049
:1018A000FF000000FFFFFFFFFF000000FF0000003F
:1018B0000000FF0000000000FF000000000000FF2B
:1018C000FF00000000000000000000000000000019
:1018D0000000000000000000000000000000000008
:1018E000000000000000000000000000FF000000F9
:1018F000FF00FF000000FF00FF000000FF00FF00EE
:1019000000FFFF0000FFFF00FF00000000000000DC
:1019100000000000000000000000000000000000C7
:1019200000000000000000000000000000000000B7
:1019300000000000FF000000FF00FF000000FF00AB
:10194000FF000000FF0000FF00FF00000000FF009C
:101950000000000000000000000000000000000087
:101960000000000000000000000000000000000077
:10197000000000000000000000000000FF00000068
:10198000FF00FF000000FF00FF00FF00FF00FF005E
:10199000FF00FF0000FF00FF00000000000000004B
:1019A0000000000000000000000000000000000037
:1019B0000000000000000000000000000000000027
:1019C00000000000FF000000FF0000FF00FF00001B
:1019D0000000FF00000000FF00FF0000FF0000000B
:1019E000FF000000000000000000000000000000F8
:1019F00000000000000000000000000000000000E7
:101A0000000000000000000000000000FF000000D7
:101A1000FF00FF000000FF00FF000000FF0000FFCC
:101A200000FF00000000FF00000000FF00000000B9
:101A3000FF000000000000000000000000000000A7
:101A40000000000000000000000000000000000096
:101A500000000000FFFFFFFFFF00000000FF00008C
:101A60000000FF00000000FF00000000FFFFFFFF7C
:101A7000FF00000000000000000000000000000067
:101A800000000000000000000000000000FF000057
:101A90000000FF0000000000FF0000000000FF0049
:101AA000000000FF000000000000FF000000000038
:101AB000FF0000000000FF000000000000FF000029
:101AC0000000000000000000000000000000000016
:101AD00000000000FF0000000000FF000000000008
:101AE000FF0000000000FF0000000000FF000000F9
:101AF0000000FF0000000000FF0000000000FF00E9
:101B000000000000FF0000000000000000000000D6
:101B10000000000000000000000000FF00000000C6
:101B20000000FF0000000000FF0000000000FF00B8
:101B30000000000000FF00000000FF0000000000A7
:101B4000FF0000000000FF00000000FF0000000098
:101B50000000000000000000000000000000000085
:101B60000000000000000000000000000000000075
:101B70000000000000FF0000FF00FF00FF00FF006A
:101B8000FF0000FF00000000000000000000000057
:101B90000000000000000000000000000000000045
:101BA0000000000053636F72650011241FBECFEF69
:101BB000D0E1DEBFCDBF11E0A0E0B1E0EEE4FEE396
:101BC00002C005900D92A231B107D9F729E0A2E138
:101BD000B1E001C01D92A23BB207E1F714BE0FB6FF
:101BE000F894A895809160008861809360001092BD
:101BF00060000FBEF89480E990E042EC50E0FC01F8
:101C000025913491F901FF2730830296481759072F
:101C1000B1F70E945E11811102C00E943C11EFEFEA
:101C2000F6E080E8819399E0EB30F907D9F78FEF80
:101C300096E090930C0980930B0910920D0981E0B6
:101C40008093240980932509809323091092100919
:101C50001092160910921C09109222091092EA069D
:101C60001092EC0692E19093EB0698ED9093F206B9
:101C700094E19093F1061092F6061092F5061092F8
:101C8000FA061092F90680930F090E94811A78943F
:101C90000E94801A0E94221B0C94251F0C940000A5
:101CA00030E03A95F1F731EC3A95F1F7C2E1D1E045
:101CB00008EDA02E662776E02DD13BE23A95F1F7AC
:101CC0000E94880E31E13A95F1F7AA9489F0C895FF
:101CD00063956C3029F033E03A95F1F70000ECCFD2
:101CE0006627002430E5C30FD01DC8950000E4CF5F
:101CF00035E03A95F1F700C00DD1E091EC0642E0F5
:101D0000E427E160E093EC06E2E0E093360008951A
:101D1000DE014D915D91679FC001480F591FFA0187
:101D200028E2059108B94D91059108B95D91059199
:101D300008B900C0059108B9480F591F059108B9A5
:101D40000591FA012A9508B961F7C895002708B9E5
:101D500008950F921F92EF93FF93FFB7E0918400D5
:101D6000FF93E2FD04C0E1FD02C0000000C0E0FFFF
:101D700000C0E091EB06EA95E093EB06F091EA06ED
:101D8000F0FD51C0EC3098F0F3E0F0938900FDE8ED
:101D9000F0938800E0FB289826F4E1E00E946B10A5
:101DA000B2C0E5E1EA95F1F70000289AACC0E63050
:101DB00008F100C000C02898E0FBE4E016F40E949F
:101DC0006B10E4E0E0933600E6E0E0936F009BC028
:101DD000EF93E0918400E2FD04C0E1FD02C0000049
:101DE00000C0E0FF00C0E2E00000289AE0936F002E
:101DF000EF91189500C0E0FB289826F4E1E00E94DE
:101E00006B1005C0E5E1EA95F1F70000289AE09132
:101E1000EB06E03009F077C0EDEFE093EB06E1E090
:101E2000E093EA0670C0E7E0E0938900EBE1E0931D
:101E3000880000C02898E2E000C00E946B10FDEF0F
:101E40000090F106F019E091EB06EF17D8F4FDEFE2
:101E50000090F106F0190090F206F019EF1790F0DB
:101E6000EDE1FF2700800F92EA95E1F70FE10A9577
:101E7000F1F700C00E94500EE1E0FF270F900192A1
:101E8000EE31E0F3E091EB06E03009F03CC02F9337
:101E90003F934F935F936F937F938F939F93AF93F2
:101EA000BF9378941124EE27E093EA06E2E1E093F1
:101EB000EB068091FB069091FC0601968093FB0651
:101EC0009093FC06E091ED06F091EE06E115F10528
:101ED00009F009950E942C110E94821A0E94950F08
:101EE0001124E091EF06F091F006E115F10509F0FB
:101EF0000995BF91AF919F918F917F916F915F9164
:101F00004F913F912F91EF91EFBFFF91EF911F9074
:101F10000F9018952898E2E000C00E946B10E091A5
:101F2000EB06EA95E093EB060895E0910F09E0FDDA
:101F30000E94211200900D09002019F4AFEFB6E0C5
:101F400002C0A5E0B8E021E0022600920D0922E0DF
:101F500020930E09E0910F09E0FF08952F923F9220
:101F60004F925F926F927F928F929F92AF92BF92A9
:101F7000CF92DF92EF92FF920F931F93CF93DF9355
:101F800050912209609124097091250980912609B8
:101F900020901109309012094090140950901509B1
:101FA000609013091091100970901709809018091A
:101FB00090901909A0901A09B0901B092091160958
:101FC000C0901D09D0901E09E0902009F0902109D1
:101FD00000911F0930911C099FEF620C431CF20114
:101FE000449141030008C12DD02D970CA81CF50188
:101FF000449142030008C10DD01D0C0DED1CF701EA
:10200000449143030008C10DD01D8A956AF44091A4
:102010002309842F8695062E0694062600FA7695C7
:10202000679576F940FF66F940E860FD4FE74503A4
:102030000008C10DD01D0024C038D0050CF0CFE73A
:102040000A94C038D0050CF4C0E8C058CD939A95D6
:1020500009F0C3CF40910E094A9540930E0997E0CD
:1020600009F0BBCF609213094092140990921909AC
:10207000A0921A0900931F09E09220096093240995
:102080007093250980932609DF91CF911F910F91BD
:10209000FF90EF90DF90CF90BF90AF909F908F9088
:1020A0007F906F905F904F903F902F900895E091B8
:1020B0000B09F0910C09019100000093B30009E0B5
:1020C000EB30F0070FEF16E008F0F801E0930B0992
:1020D000F0930C0908950F931F932F93EF93E091C2
:1020E0000B09F0910C0901910093B30009E0EB306A
:1020F000F0070FEF16E008F0F801E0930B09F093FA
:102100000C09E8E0EA95F1F7EF912F911F910F91FB
:10211000E0FD289AE0FF01C00895F4E1FA95F1F797
:1021200000C0E1FD289AE1FF00C00895EAEEF2E068
:10213000A2E1B1E06091E6067091E7066D937D93B0
:102140003197E1F7112408959927552728E2220FA6
:10215000629F880F080E191EA2E1B1E0A00DB11D0B
:102160006091E6067091E70628E4429F600D711DBC
:102170006D937C93112408958093E6069093E7066F
:1021800008958091EC06817008952091EC062E7FD1
:102190002093EC060895882329F48091F30690910A
:1021A000F40608958091F7069091F8060895E0E608
:1021B000F0E0808183FD089588E198E0F8948083C1
:1021C00090837894FFCFF999FECF92BD81BD60BD19
:1021D000F894FA9AF99A78940895F999FECF92BDF5
:1021E00081BDF894F89A80B578940895129AC895AC
:1021F000C895C895C895129840E180E090E020E02D
:1022000030E03695279596958795C895C895C895D9
:10221000C8951398009B3068019B9068139AC895E5
:10222000C895C895C895415061F73093F40620933E
:10223000F3069093F8068093F7068091F306909149
:10224000F4060F9731F08091F7069091F8060F97FA
:1022500011F40C94D710089510924009009903C00E
:1022600081E080934009019905C080914009826016
:10227000809340090C94F610CF93DF93C0E0D0E038
:10228000FE01E059FF4F6491CE010E94E3102196B8
:10229000C032D105A9F7C0E2D0E06FEFCE010E94B5
:1022A000E3106FEFCE0101960E94E310A096C115D6
:1022B00088E0D80791F7DF91CF910895CF9380E020
:1022C00090E00E94ED10C82F81E090E00E94ED1098
:1022D000282F30E0322F22272C0F311D81E02A35A4
:1022E000354509F080E0CF910895FC016787089596
:1022F000E0E1F9E081E091E0958B848B638B0895B8
:10230000FC0182810C94C514FC019181690F6183E9
:1023100082810C94AE14FC019181961B692F9183EC
:1023200082810C94AE14FC0190819F759083089576
:10233000FC019081906490830895FC016687089564
:102340001F93CF93DF93EC01162F8A810E94AE1466
:1023500019838881877F8883DF91CF911F910895AA
:10236000FC0162870895FC0163870895CF93DF9392
:10237000EC01262F898190E0FC01EE0FFF1FEC534A
:10238000F64D45915491FC01E60FF11D67FDFA955C
:10239000EE0FFF1FEC53F64D85919491841B950B26
:1023A000688570E00E94521E6115710511F461E0AC
:1023B00070E0EA8186E0E89FF0011124E05FF64FCB
:1023C00081819281860F971F928381837E836D83A3
:1023D0008881886088838981280F2F83DF91CF913E
:1023E0000895FC0160870895FC0164830895DC0171
:1023F00014968C911497882319F155962D913C9140
:102400005697662379F0062E000C770B6F5F7F4F8F
:10241000AB01440F551F640F751F261B370B09C0F6
:10242000EF3F39F023503109F9013297E491ED3053
:10243000B9F756963C932E935597815014968C93EA
:102440000895EF92FF920F931F93CF93DF93C3E40E
:10245000D9E000E119E09801DE011F968C911F97E9
:102460008823A9F01E964C911E97082E000C990BFC
:10247000840F911D8F3F910519F014F08FEF90E0BC
:1024800097FF02C080E090E01E968C931E976C919F
:1024900063FF26C015964D915C911697F9018181D5
:1024A0009281840F951F928381831796EC911797E1
:1024B000F0E0EE0FFF1FEC53F64DE590F49014168C
:1024C000150624F48E159F0530F40AC0452B41F003
:1024D000E816F90628F0F901F282E182677F6C9331
:1024E00057962A5F3F4FF9E0AF39BF0709F0B5CFE4
:1024F0008091FE06882309F4CCC087E1F82E8091F4
:102500009F099091A0092091A5093091A6098217F1
:10251000930709F0B9C02091A8093091A909B90120
:102520006F5F7F4F7093A9096093A809F9014491E7
:102530004F3F79F5A9014E5F5F4F5093A909409332
:10254000A809FB0164916F3219F41092FE069CC039
:10255000663009F08CC0FA014491C9010496909349
:10256000A9098093A809F9013396E491E33529F488
:102570009093AB098093AA097AC0E53409F077C03B
:102580008091AA099091AB099093A9098093A80919
:102590006EC047FD4093A3099091A309892F8F70C6
:1025A00047FF08C02E5F3F4F3093A9092093A80929
:1025B000FB014491907F903BE1F0903C09F451C0C5
:1025C000903909F054C0E091A809F091A9099F0140
:1025D0002F5F3F4F3093A9092093A8092491220F20
:1025E000F89EF0011124ED5BF64F60890E946E1495
:1025F0003EC0E091A809F091A9099F012F5F3F4FCC
:102600003093A9092093A809E491473049F4F89E32
:10261000D0011124AD5BB64FEE0F1C96EC9327C092
:102620004B3049F4F89ED0011124AD5BB64FEE0F4C
:102630001396EC931CC04C3549F4F89ED00111243C
:10264000AD5BB64FEE0F1A96EC9311C0443679F499
:10265000F89ED0011124AD5BB64FEE0F1B96EC93A4
:1026600006C0F89EF0011124ED5BF64F408B88EA1E
:1026700099E00E94FA139093A6098093A5091092FD
:10268000A00910929F093BCF01969093A0098093D7
:102690009F09EE24EA94F12C888185FF37C02D89AB
:1026A0003E89232B09F432C086FD30C09B898A897C
:1026B00098132AC0ED89FE89BF016F5F7F4F7E8B23
:1026C0006D8B84918F3F31F488818F7788831E8A48
:1026D0001D8A1AC03296FE8BED8BFB016491E82FA8
:1026E000F0E0EE0FFF1FEE53FF4F25913491CE0126
:1026F000F9010995ED89FE89CF0101969E8B8D8B9D
:10270000E491EA8B1B8AD2CF9F5F9B8B988195FFC8
:102710005EC08C898F3F11F08F5F8C8B97FD02C05C
:102720009C8501C09FEF8D854985882309F449C0A8
:102730006E85662309F445C0992309F442C050917F
:10274000A409552309F43DC0899FC0011124939524
:10275000892F9927689F9001699F300D1124339527
:10276000232F33276B81629FC001639F900D11243B
:102770009395892F9927589F9001599F300D1124C7
:102780003395232F33278A858823E9F0E42FF0E05F
:10279000E050F54DE491E0588E9FF0011124F3953F
:1027A000EF2FFF27B7016E1B7F0B629FC001639F56
:1027B000900D729F900D11249C013395232F332788
:1027C00002C020E030E08B85480F498702C020E03E
:1027D00030E0F801208367960A5F1F4FF9E0CF3998
:1027E000DF0709F059CFDF91CF911F910F91FF9033
:1027F000EF900895DC01ED91FC9111979F012F5FFF
:102800003F4F11963C932E93E491E7FD03C08E2F2A
:1028100090E00895EF778E2F90E09695982F882777
:10282000979587952F5F3F4FF9013197E4914E2F90
:102830004F77840F911DE7FDF0CF2D933C930895C2
:102840000F931F93CF93DF93EC01162F8881082FEE
:1028500000781F869FEF9E874D871C8A877B888321
:102860001A86198629831C829B838A81833069F4A6
:10287000011101C0122F81E091E09093250980930E
:10288000240981E08093230907C0622F0E94AE14BF
:1028900060E08A810E94C514002311F0198B01C0E9
:1028A000188BE091A109F091A20989E0189FE00D31
:1028B000F11D1124339685919491009719F41E8A85
:1028C0001D8A07C01B8AFC0124912A8B01969E8BCE
:1028D0008D8BDF91CF911F910F910895CF93DF934F
:1028E000A82FB0E097E1899FF0011124ED5BF64F2E
:1028F000808185FF02C087FD2EC0211118C097E19D
:102900009A9FF0019B9FF00D1124ED5BF64F978588
:10291000911102C086FF158697E19A9FF0019B9F57
:10292000F00D1124ED5BF64F8F7B808314C0822F56
:10293000242F97E19A9FE0019B9FD00D1124CD5B3E
:10294000D64F18821E8A1D8A482FCE010E9420145D
:10295000888180628883DF91CF91089599277727B6
:10296000833008F00895E4ECF9E2660F771FE60F74
:10297000F71FA591B491E0E1F9E026E0289FE00D72
:10298000F11DA183B2831124089599277727E0E1EF
:10299000F9E026E0289FE00DF11D6E3F31F46091D3
:1029A00023096E7F609323090BC06F3F31F4609160
:1029B00023096E6F6093230903C07BE2760F758352
:1029C0001124089522002400260028002B002D0049
:1029D00030003300360039003D004000440048001C
:1029E0004C00510056005B00600066006C007300F4
:1029F00079008100880090009900A200AC00B60028
:102A0000C100CC00D800E500F30001011001210154
:102A10003201440157016C0181019801B001CA01E2
:102A2000E50102022102410264028802AE02D702DD
:102A30000303300361039403CB03050442048304BE
:102A4000C70410055D05AF0505066106C206290726
:102A500096070908830805098E09200ABA0A5D0B42
:102A60000A0CC10C840D510E2B0F121007110A1203
:102A70001D1340147415BA1614188319071BA31CD0
:102A8000571E24200E22142439267F28E82A752D6B
:102A9000293006330F364539AD3C49401B442848A0
:102AA000734CFE50CF55EA5A51600C661D6C8B7208
:102AB0005A79928037885090E598FDA19FABD3B5A5
:102AC000A3C00000000000000000000000000000A3
:102AD00000000000000000000000000000000000F6
:102AE00000000000000000000000000000000000E6
:102AF00000000000000000000000000000000000D6
:102B0000000306090C101316191C1F2225282B2E52
:102B1000313336393C3F414447494C4E5153555867
:102B20005A5C5E60626466686A6B6D6F7071737424
:102B3000757678797A7A7B7C7D7D7E7E7E7F7F7FDD
:102B40007F7F7F7F7E7E7E7D7D7C7B7A7A797876C3
:102B500075747371706F6D6B6A68666462605E5CD9
:102B60005A585553514E4C494744413F3C393633EE
:102B7000312E2B2825221F1C191613100C090603B1
:102B800000FDFAF7F4F0EDEAE7E4E1DEDBD8D5D2B8
:102B9000CFCDCAC7C4C1BFBCB9B7B4B2AFADABA883
:102BA000A6A4A2A09E9C9A9896959391908F8D8CA6
:102BB0008B8A8887868685848383828282818181CD
:102BC0008181818182828283838485868687888AC7
:102BD0008B8C8D8F9091939596989A9C9EA0A2A491
:102BE000A6A8ABADAFB2B4B7B9BCBFC1C4C7CACD5C
:102BF000CFD2D5D8DBDEE1E4E7EAEDF0F4F7FAFD79
:102C0000808182838485868788898A8B8C8D8E8F4C
:102C1000909192939495969798999A9B9C9D9E9F3C
:102C2000A0A1A2A3A4A5A6A7A8A9AAABACADAEAF2C
:102C3000B0B1B2B3B4B5B6B7B8B9BABBBCBDBEBF1C
:102C4000C0C1C2C3C4C5C6C7C8C9CACBCCCDCECF0C
:102C5000D0D1D2D3D4D5D6D7D8D9DADBDCDDDEDFFC
:102C6000E0E1E2E3E4E5E6E7E8E9EAEBECEDEEEFEC
:102C7000F0F1F2F3F4F5F6F7F8F9FAFBFCFDFEFFDC
:102C8000000102030405060708090A0B0C0D0E0FCC
:102C9000101112131415161718191A1B1C1D1E1FBC
:102CA000202122232425262728292A2B2C2D2E2FAC
:102CB000303132333435363738393A3B3C3D3E3F9C
:102CC000404142434445464748494A4B4C4D4E4F8C
:102CD000505152535455565758595A5B5C5D5E5F7C
:102CE000606162636465666768696A6B6C6D6E6F6C
:102CF000707172737475767778797A7B7C7D7E7F5C
:102D000000020406080A0C0E10121416181A1C1ED3
:102D100020222426282A2C2E30323436383A3C3EC3
:102D200040424446484A4C4E50525456585A5C5EB3
:102D300060626466686A6C6E70727476787A7C7EA3
:102D40007F7D7B79777573716F6D6B696765636183
:102D50005F5D5B59575553514F4D4B494745434173
:102D60003F3D3B39373533312F2D2B292725232163
:102D70001F1D1B19171513110F0D0B090705030153
:102D8000FFFDFBF9F7F5F3F1EFEDEBE9E7E5E3E143
:102D9000DFDDDBD9D7D5D3D1CFCDCBC9C7C5C3C133
:102DA000BFBDBBB9B7B5B3B1AFADABA9A7A5A3A123
:102DB0009F9D9B99979593918F8D8B898785838113
:102DC00080828486888A8C8E90929496989A9C9E13
:102DD000A0A2A4A6A8AAACAEB0B2B4B6B8BABCBE03
:102DE000C0C2C4C6C8CACCCED0D2D4D6D8DADCDEF3
:102DF000E0E2E4E6E8EAECEEF0F2F4F6F8FAFCFEE3
:102E00007F7F7F7F7F7F7F7F7F7F7F7F7F7F7F7FD2
:102E10007F7F7F7F7F7F7F7F7F7F7F7F7F7F7F7FC2
:102E20007F7F7F7F7F7F7F7F7F7F7F7F7F7F7F7FB2
:102E30007F7F7F7F7F7F7F7F7F7F7F7F7F7F7F7FA2
:103100000309131E28313A40464C5054585B5E6107
:10311000636567696B6C6E6F7071727374757677C7
:10312000777879797A7A7B7B7C7C7C7D7D7D7E7EED
:103130007E7E7F7F7F7F7F7F7F7F7F7F7F7F7F7FA1
:103140007F7F7F7F7F7F7F7F7F7F7F7F7F7E7E7E92
:103150007E7D7D7D7C7C7C7B7B7A7A7979787777C4
:10316000767574737271706F6E6C6B69676563618D
:103170005E5B5854504C46403A31281E13090300F8
:10318000C6CCD5DBDFE3E5E7E9EAEBECEDEEEFEF0C
:10319000F0F0F0F1F1F1F1F2F2F2F2F2F2F2F2F318
:1031A000F3F3F3F3F3F3F3F3F3F3F3F3F3F3F3F3EF
:1031B000F3F3F3F3F3F3F3F3F3F3F3F3F3F3F3F3DF
:1031C000F3F3F3F3F3F3F3F3F3F3F3F3F3F3F3F3CF
:1031D000F3F3F3F3F3F3F3F3F3F3F3F3F3F3F3F3BF
:1031E000F2F2F2F2F2F2F2F2F1F1F1F1F0F0F0EFCC
:1031F000EFEEEDECEBEAE9E7E5E3DFDBD5CCC6008B
:1032000000283D42302D2C2B2C2D2E2F30323335E3
:1032100037393B3D3F414345484A4C4E5053555743
:10322000595B5D5F61636567696B6C6E7071737428
:10323000757778797A7B7C7D7D7E7E7F7F7F7F7FCF
:103240007F7F7F7F7F7F7E7E7D7D7C7B7A797877B5
:1032500075747371706E6C6B69676563615F5D5BDC
:1032600059575553504E4C4A484543413F3D3B39D1
:1032700037353332302F2E2D2C2B2C2D30423D283C
:1032800000E9E5FED4D7D7D7D6D4D2D0CECCCAC8A1
:10329000C6C3C1BFBDBAB8B6B4B1AFADABA9A7A5DF
:1032A000A3A19F9E9C9A999795949391908F8D8CB2
:1032B0008B8A8988888786858584848483838383B1
:1032C0008383838383848484858586878888898AA9
:1032D0008B8C8D8F909193949597999A9C9E9FA19A
:1032E000A3A5A7A9ABADAFB1B4B6B8BABDBFC1C3B2
:1032F000C6C8CACCCED0D2D4D6D7D7D7D4FEE5E96B
:10330000F9F8F9F5EBE1DDDEE0E2E4E5E6E5E4E23B
:10331000DED9D2CAC1B7ACA299918A868381808056
:103320008182838586888A8C8D8F909293959697DB
:1033300098999A9B9B9C9D9D9D9E9E9E9F9F9F9FC3
:103340009F9F9F9E9E9E9D9D9D9C9B9B9A999897BB
:1033500096959392908F8D8C8A88868583828180C2
:10336000808183868A9199A2ACB7C1CAD2D9DEE2A4
:10337000E4E5E6E5E4E2E0DEDDE1EBF5F9F8F900AD
:103380000708070B151F2322201E1C1B1A1B1C1EBF
:1033900022272E363F49545E676F767A7E7F7F7F85
:1033A0007F7E7D7B7A7876747371706E6D6B6A69DF
:1033B00068676665656464636362626261616161D6
:1033C00061616162626263636364656566676869BF
:1033D0006A6B6D6E7071737476787A7B7D7E7F7F99
:1033E0007F7F7E7A766F675E54493F362E27221E96
:1033F0001C1B1A1B1C1E2022231F150B070807006D
:103400001F313D444E5354565A5F64696E74767949
:103410007C7F7F7F7F7F7F7F7F7F7F7F7F7F7F7FBF
:103420007F7F7F7F7F7F7F7F7F7F7F7F7F7F7F7FAC
:103430007F7F7F7F7F7F7F7F7F7F7F7F7F7F7F7F9C
:103440007F7F7F7F7F7F7F7F7F7F7F7F7F7F7F7F8C
:103450007F7F7F7F7F7F7F7F7F7F7F7F7F7F7F7F7C
:103460007F7F7F7F7F7F7F7F7F7F7F7F7F7F7F7F6C
:103470007F7F7F7F7F7F7F7F7F7F7F7C7871684CBE
:103480002C1C120C0A0B0A05FDF3E9DFD4CAC0B7E5
:10349000AEA69E97918B868582808080808080807A
:1034A000808080808080808080808080808080801C
:1034B000808080808080808080808080808080800C
:1034C00080808080808080808080808080808080FC
:1034D00080808080808080808080808080808080EC
:1034E00080808080808080808080808080808080DC
:1034F000808080808087919DACC4CBD4DDF2FAFAC5
:10350000089508950C94FA1ACF92DF92EF92FF92E9
:103510000F931F93CF93DF93C82ED62F8A01D22EFD
:10352000C0E08AE0E82EF12C2C2D2C1B0115110592
:1035300011F4C11107C0C801B7010E943E1E40E14D
:10354000480F05C0DD2011F040E101C040E06D2FC3
:10355000822F0E94A410C801B7010E943E1E8B0159
:10356000CF5FC53009F7DF91CF911F910F91FF9089
:10357000EF90DF90CF900895DF92EF92FF920F933C
:103580001F93CF93DF937C01D62E8A01EC01FE01BD
:10359000EE19FF09E00FF11FE491EE2349F0EF77F8
:1035A00040EE4E0F6D2D8C2F0E94A4102196EFCF70
:1035B000DF91CF911F910F91FF90EF90DF900895D1
:1035C00040520C94A4100F931F93CF93DF938C0160
:1035D000C0E0D0E0C017D10744F40E94C110882396
:1035E000E1F30E94C5102196F5CFDF91CF911F9195
:1035F0000F9108958091AF09882301F18091B0095E
:10360000811119C08091AD098093B009E091B10991
:10361000F0E0E152FF4FE491E7B99091B109809158
:10362000AE09890F8093B109882311F08D3031F4F0
:103630001092AF09089581508093B0090895860FC4
:10364000992708958CEE90E00E94BC100E944D1BBB
:1036500081E090E00E94E31A80E00E94CB109093FA
:1036600039098093380920913E0930913F09A90119
:10367000409550954823592350933B0940933A096C
:10368000809590958223932390933D0980933C09E4
:103690000E948B1B0E94001DDBCF0F931F93CF93C3
:1036A000DF930E94D41E08E210E0B8010E94521E6F
:1036B00090932909809328090E94D41EC2E1D0E08A
:1036C000BE010E94521E90932B0980932A091092EA
:1036D0002F0910922E090E94D41EBE010E94521E74
:1036E00090932D0980932C090E94D41EBE010E9444
:1036F000521E90933309809332090E94D41EB80160
:103700000E94521E9093310980933009DF91CF912E
:103710001F910F910895AF92BF92CF92DF92EF92D7
:10372000FF920F931F93CF93DF9380913A0990916B
:103730003B0980329105D1F04CF48230910519F1AA
:1037400080319105C1F0019721F510C080389105B5
:10375000D1F024F48034910589F01BC0811521E05B
:10376000920749F08115924049F013C061E070E082
:1037700080E090E00CC06FEF7FEFFACF60E070E088
:103780008FEF9FEF04C060E070E081E090E00E9466
:103790008E1D809138099091390990933F0980934B
:1037A0003E0920913409309135092F5F3F4F309306
:1037B00035092093340980910C0190910D018217F5
:1037C00093070CF040C020913009309131094091AD
:1037D0002809509129092417350734F42F5F3F4FEA
:1037E000309331092093300920913009309131090B
:1037F0004217530734F42150310930933109209393
:103800003009209132093091330940912A095091B1
:103810002B092417350734F42F5F3F4F30933309BA
:10382000209332092091320930913309421753070E
:1038300034F4215031093093330920933209109226
:103840003509109234092091360930913709243016
:1038500031052CF0181619066CF4019707C0232BBC
:1038600049F41816190634F08CE291E090930D019A
:1038700080930C0180912E0990912F0901969093CD
:103880002F0980932E09409106015091070122E1F2
:1038900030E0241B350B82179307ACF080910401B4
:1038A00090910501C8E2D0E0C81BD90B0E94D41E3C
:1038B000BE010E94521E90932D0980932C091092F4
:1038C0002F0910922E09A0900601B0900701C09018
:1038D0000401D0900501E0902E09F0902F0900918D
:1038E0002C0910912D092091020130910301409182
:1038F00000015091010160912A0970912B0980917A
:103900002809909129090E94671D882309F161E027
:1039100070E080913609909137090E941F1B9093A7
:103920003709809336098091040190910501C8E21E
:10393000D0E0C81BD90B0E94D41EBE010E94521EAB
:1039400090932D0980932C0910922F0910922E0923
:10395000A0900A01B0900B01C0900801D09009011D
:10396000E0903209F090330900913009109131094B
:103970002091020130910301409100015091010119
:1039800060912A0970912B09809128099091290949
:103990000E94671D882349F16FEF7FEF8091360900
:1039A000909137090E941F1B181619062CF490934A
:1039B00037098093360904C01092370910923609EE
:1039C0008091080190910901C8E2D0E0C81BD90B91
:1039D0000E94D41EBE010E94521E90933109809312
:1039E00030091092330910923209DF91CF911F9163
:1039F0000F91FF90EF90DF90CF90BF90AF90089520
:103A00000F930E94961044EA5BE160E070E081E071
:103A100090E00E94BC1A409136095091370920E08D
:103A200060E070E08AE090E00E94841A40912809EA
:103A30005091290920E060E070E081E190E00E946F
:103A4000841A40912A0950912B0920E060E070E02F
:103A500086E190E00E94841A2091020130910301D6
:103A6000409100015091010160912A0970912B0948
:103A700000E380912809909129090E94D41D20918A
:103A800006013091070140910401509105016091B8
:103A90002E0970912F0904E280912C0990912D0933
:103AA0000E94D41D20910A0130910B014091080120
:103AB00050910901609132097091330908E58091B4
:103AC0003009909131090E94D41D0F910895AF9251
:103AD000BF92CF92DF92EF92FF920F931F93480F06
:103AE000591F4017510784F0260F371F2E153F0529
:103AF0005CF0C00ED11EC816D90634F0AE0CBF1C47
:103B000081E0A616B7060CF480E01F910F91FF909C
:103B1000EF90DF90CF90BF90AF900895EF92FF921B
:103B20000F931F93CF93DF930091280910912909D8
:103B3000F801E80FF91FF0932909E0932809C091D3
:103B40002A09D0912B099E01260F371F30932B098C
:103B500020932A09F7FD19C0E0900001F0900101BF
:103B600086E090E0B7010E94521EE60FF71FB8975B
:103B700064F437FD0AC08CE090E0B7010E94521E49
:103B8000260F371F2231310544F010932909009385
:103B90002809D0932B09C0932A09DF91CF911F9157
:103BA0000F91FF90EF9008955F926F927F928F92A6
:103BB0009F92AF92BF92CF92DF92EF92FF920F93BC
:103BC0001F93CF93DF93883291050CF047C0623189
:103BD00071050CF043C0502E4901EA017B018C01B4
:103BE0003C016B01C20ED31E560181E0A81AB10838
:103BF000C301801B910B8C179D07B4F488E26816F3
:103C000071042CF4452DB701C3010E94E01A83E131
:103C1000C816D1042CF4452DB501C3010E94E01A49
:103C20008FEF681A780AE4CFCC24C394D12CC00F4C
:103C3000D11F2197C814D9048CF45701AC0CBD1CBA
:103C4000452DB501C8010E94E01A452DB501CE01F0
:103C50000E94E01A8FEFC81AD80AECCFDF91CF91FB
:103C60001F910F91FF90EF90DF90CF90BF90AF909A
:103C70009F908F907F906F905F900895AA1BBB1BC1
:103C800051E107C0AA1FBB1FA617B70710F0A61B5C
:103C9000B70B881F991F5A95A9F780959095BC017D
:103CA000CD01089597FB072E16F4009407D077FDF9
:103CB00009D00E943E1E07FC05D03EF490958195E8
:103CC0009F4F0895709561957F4F0895A1E21A2E38
:103CD000AA1BBB1BFD010DC0AA1FBB1FEE1FFF1FB0
:103CE000A217B307E407F50720F0A21BB30BE40B00
:103CF000F50B661F771F881F991F1A9469F7609547
:103D00007095809590959B01AC01BD01CF01089500
:103D10008F929F92AF92BF92CF92DF92EF92FF92DB
:103D2000CF93DF93EC01688179818A819B81611552
:103D300071058105910521F464E279ED8BE597E049
:103D40002DE133EF41E050E00E94E41E49015A01A9
:103D50009B01AC01A7EAB1E40E94031F6B017C0147
:103D6000ACEEB4EFA50194010E94111FDC01CB0160
:103D70008C0D9D1DAE1DBF1DB7FF03C00197A1098E
:103D8000B04888839983AA83BB839F77DF91CF91C3
:103D9000FF90EF90DF90CF90BF90AF909F908F906B
:103DA00008950E94881E08958EE091E00E94881E6A
:103DB0000895A0E0B0E080930E0190930F01A093CE
:103DC0001001B09311010895052E97FB1EF4009485
:103DD0000E94FB1E57FD07D00E94661E07FC03D001
:103DE0004EF40C94FB1E50954095309521953F4F15
:103DF0004F4F5F4F089590958095709561957F4FD7
:103E00008F4F9F4F08950E94161FA59F900DB49F3E
:103E1000900DA49F800D911D11240895B7FF0C945F
:103E2000031F0E94031F821B930B0895A29FB001E2
:103E3000B39FC001A39F700D811D1124911DB29FDE
:0E3E4000700D811D1124911D0895F894FFCF7F
:103E4E000300030003000300050003002C01010022
:023E5E00000062
:00000001FF
