:100000000C94E40D0C945D0E0C945D0E0C945D0E3E
:100010000C945D0E0C945D0E0C945D0E0C945D0EB4
:100020000C945D0E0C945D0E0C945D0E0C945D0EA4
:100030000C945D0E0C94B80E0C94F70E0C945D0E9F
:100040000C945D0E0C945D0E0C945D0E0C945D0E84
:100050000C945D0E0C945D0E0C945D0E0C945D0E74
:100060000C945D0E0C945D0E0C945D0E0C945D0E64
:100070005A5501200101003808000000000000006E
:100080000000000000000000000000000000000070
:10009000810045005DFF5E1027FF2AD22B7D210CD9
:1000A00022FB850084008903888D81096F02444208
:1000B00047004501B083B300B10124B925578A1D1B
:1000C0008B03841187118F1193119A11A211A7111B
:1000D000AC11AF11BF11C211C511001203120612EB
:1000E00000408891D2E4ADB5B6BEBFFF000000006D
:1000F0000000000000000000000000000000000000
:1001000000000000000000000000000000000000EF
:1001100000000000000000000000000000000000DF
:1001200000000000000000000000000000000000CF
:1001300000000000000000000000000000000000BF
:100140000000FF0000000000FF0000000000FF00B2
:1001500000000000FF0000000000FF0000000000A1
:10016000000000000000FF00000000000000000090
:10017000000000000000000000000000000000007F
:10018000000000FF00FF000000FF00FF000000FF74
:1001900000FF000000000000000000000000000060
:1001A000000000000000000000000000000000004F
:1001B000000000000000000000000000000000003F
:1001C000000000000000000000000000000000002F
:1001D00000000000000000FF00FF0000FFFFFFFF25
:1001E000FF0000FF00FF000000FF00FF0000FFFF16
:1001F000FFFFFF0000FF00FF000000000000000004
:1002000000000000000000000000000000000000EE
:1002100000000000FF00000000FFFFFF0000FF00E3
:10022000FF00FF00FF00FF00000000FFFFFF0000D5
:100230000000FF00FF00FF00FF00FF0000FFFFFFC6
:1002400000000000FF0000000000000000000000AF
:10025000000000000000000000000000000000009E
:10026000FFFF0000FF00FFFF0000FF00000000FF95
:1002700000000000FF00000000FF00000000FF0081
:1002800000FFFF00FF0000FFFF0000000000000073
:10029000000000000000000000000000000000005E
:1002A000000000000000000000FF00000000FF0050
:1002B000FF000000FF00FF00000000FF0000000042
:1002C000FF00FF00FF00FF0000FF000000FFFF0035
:1002D000FF0000000000000000000000000000001F
:1002E000000000000000000000000000FF0000000F
:1002F0000000FF0000000000FF0000000000000000
:1003000000000000000000000000000000000000ED
:1003100000000000000000000000000000000000DD
:1003200000000000000000000000000000000000CD
:100330000000000000FF00000000FF0000000000BF
:10034000FF00000000FF0000000000FF00000000B0
:1003500000FF000000000000FF0000000000FF00A0
:100360000000000000FF000000000000000000008E
:100370000000000000000000000000FF000000007E
:100380000000FF0000000000FF000000000000FF70
:100390000000000000FF0000000000FF000000005F
:1003A000FF0000000000FF00000000FF0000000050
:1003B000000000000000000000000000000000003D
:1003C00000000000000000000000FF000000FF002F
:1003D000FF00FF0000FFFFFF00000000FF00000023
:1003E00000FFFFFF0000FF00FF00FF000000FF0014
:1003F00000000000000000000000000000000000FD
:1004000000000000000000000000000000000000EC
:100410000000000000000000FF0000000000FF00DE
:100420000000FFFFFFFFFF000000FF0000000000D2
:10043000FF000000000000000000000000000000BD
:1004400000000000000000000000000000000000AC
:10045000000000000000000000000000000000009C
:10046000000000000000000000000000000000008C
:1004700000000000000000FFFF00000000FFFF0080
:100480000000FFFF0000000000000000000000006E
:10049000000000000000000000000000000000005C
:1004A000000000000000000000000000000000004C
:1004B0000000FFFFFFFFFF00000000000000000041
:1004C000000000000000000000000000000000002C
:1004D000000000000000000000000000000000001C
:1004E000000000000000000000000000000000000C
:1004F00000000000000000000000000000000000FC
:1005000000000000000000FFFF00000000FFFF00EF
:1005100000000000000000000000000000000000DB
:1005200000000000000000000000000000000000CB
:1005300000000000FF00000000FF0000000000FFBE
:1005400000000000FF00000000FF0000000000FFAE
:1005500000000000FF00000000000000000000009C
:10056000000000000000000000000000000000008B
:1005700000000000000000000000FFFF000000FF7E
:100580000000FF0000FF0000FF0000FF0000FF0070
:1005900000FF0000FF0000FF0000FF000000FFFF61
:1005A000000000000000000000000000000000004B
:1005B000000000000000000000000000000000003B
:1005C0000000FF00000000FFFF0000000000FF002F
:1005D00000000000FF0000000000FF00000000001D
:1005E000FF00000000FFFFFF00000000000000000F
:1005F00000000000000000000000000000000000FB
:10060000000000000000000000FFFFFF0000FF00EE
:100610000000FF0000000000FF00000000FF0000DD
:100620000000FF00000000FF00000000FFFFFFFFD0
:10063000FF000000000000000000000000000000BB
:1006400000000000000000000000000000000000AA
:10065000FFFFFFFFFF0000000000FF00000000FFA1
:1006600000000000FFFF000000000000FF00FF008E
:100670000000FF0000FFFFFF00000000000000007E
:10068000000000000000000000000000000000006A
:100690000000000000000000000000FF000000005B
:1006A000FFFF000000FF00FF0000FF0000FF000050
:1006B000FFFFFFFFFF00000000FF0000000000FF41
:1006C000000000000000000000000000000000002A
:1006D000000000000000000000000000000000001A
:1006E000FFFFFFFFFF00FF0000000000FFFFFFFF14
:1006F000000000000000FF0000000000FF00FF00FD
:100700000000FF0000FFFFFF0000000000000000ED
:1007100000000000000000000000000000000000D9
:1007200000000000000000000000FFFF000000FFCC
:1007300000000000FF0000000000FFFFFFFF0000BE
:10074000FF000000FF00FF000000FF0000FFFFFFB0
:100750000000000000000000000000000000000099
:100760000000000000000000000000000000000089
:10077000FFFFFFFFFF0000000000FF00000000FF80
:100780000000000000FF00000000FF00000000006B
:10079000FF0000000000FF0000000000000000005B
:1007A0000000000000000000000000000000000049
:1007B000000000000000000000FFFFFF0000FF003D
:1007C0000000FF00FF000000FF0000FFFFFF00002F
:1007D000FF000000FF00FF000000FF0000FFFFFF20
:1007E0000000000000000000000000000000000009
:1007F00000000000000000000000000000000000F9
:1008000000FFFFFF0000FF000000FF00FF000000EE
:10081000FF0000FFFFFFFF0000000000FF000000DE
:1008200000FF000000FFFF000000000000000000CB
:1008300000000000000000000000000000000000B8
:1008400000000000000000000000000000000000A8
:100850000000000000FFFF00000000FFFF0000009C
:1008600000000000000000FFFF00000000FFFF008C
:100870000000000000000000000000000000000078
:100880000000000000000000000000000000000068
:1008900000000000000000000000000000FFFF005A
:1008A000000000FFFF00000000000000000000FF4B
:1008B000FF00000000FFFF000000FFFF000000003D
:1008C0000000000000000000000000000000000028
:1008D0000000000000000000000000000000000018
:1008E00000FF00000000FF00000000FF000000000B
:1008F0000000FF000000000000FF000000000000FA
:1009000000000000000000000000000000000000E7
:1009100000000000000000000000000000000000D7
:10092000000000000000000000000000FFFFFFFFCB
:10093000FF00000000000000FFFFFFFFFF000000BD
:1009400000000000000000000000000000000000A7
:100950000000000000000000000000000000000097
:10096000000000000000000000000000000000FF88
:10097000000000000000FF000000000000FF000079
:100980000000FF00000000FF000000000000000069
:100990000000000000000000000000000000000057
:1009A0000000000000000000000000000000000047
:1009B00000FFFFFF0000FF000000FF00000000FF3D
:1009C00000000000FF0000000000FF000000000029
:1009D000000000000000FF00000000000000000018
:1009E0000000000000000000000000000000000007
:1009F000000000000000000000FFFFFF0000FF00FB
:100A00000000FF00FF00FFFFFF00FF00FF00FF00EE
:100A1000FF00FFFFFF00FF000000000000FFFFFFDE
:100A200000000000000000000000000000000000C6
:100A300000000000000000000000000000000000B6
:100A400000FFFFFF0000FF000000FF00FF000000AC
:100A5000FF00FFFFFFFFFF00FF000000FF00FF009F
:100A60000000FF00FF000000FF0000000000000089
:100A70000000000000000000000000000000000076
:100A80000000000000000000FFFFFFFF000000FF6B
:100A90000000FF0000FF0000FF0000FFFFFF00005C
:100AA00000FF0000FF0000FF0000FF00FFFFFFFF4E
:100AB0000000000000000000000000000000000036
:100AC0000000000000000000000000000000000026
:100AD00000FFFFFF0000FF000000FF00FF0000001C
:100AE0000000FF0000000000FF0000000000FF0009
:100AF0000000FF0000FFFFFF0000000000000000FA
:100B000000000000000000000000000000000000E5
:100B10000000000000000000FFFFFFFF000000FFDA
:100B20000000FF0000FF0000FF0000FF0000FF00CA
:100B300000FF0000FF0000FF0000FF00FFFFFFFFBD
:100B400000000000000000000000000000000000A5
:100B50000000000000000000000000000000000095
:100B6000FFFFFFFFFF00FF0000000000FF0000008C
:100B70000000FFFFFFFF0000FF0000000000FF007B
:100B800000000000FFFFFFFFFF000000000000006A
:100B90000000000000000000000000000000000055
:100BA0000000000000000000FFFFFFFFFF00FF004B
:100BB00000000000FF0000000000FFFFFFFF00003A
:100BC000FF0000000000FF0000000000FF00000028
:100BD0000000000000000000000000000000000015
:100BE0000000000000000000000000000000000005
:100BF00000FFFFFF0000FF000000FF00FF000000FB
:100C00000000FF0000000000FF0000FFFF00FF00E9
:100C10000000FF0000FFFFFF0000000000000000D8
:100C200000000000000000000000000000000000C4
:100C30000000000000000000FF000000FF00FF00B7
:100C40000000FF00FF000000FF00FFFFFFFFFF00AC
:100C5000FF000000FF00FF000000FF00FF00000099
:100C6000FF00000000000000000000000000000085
:100C70000000000000000000000000000000000074
:100C800000FFFFFF00000000FF0000000000FF0069
:100C900000000000FF0000000000FF000000000056
:100CA000FF00000000FFFFFF000000000000000048
:100CB0000000000000000000000000000000000034
:100CC00000000000000000000000FFFFFF00000027
:100CD00000FF0000000000FF0000000000FF000017
:100CE000000000FF0000FF0000FF000000FFFF0009
:100CF00000000000000000000000000000000000F4
:100D000000000000000000000000000000000000E3
:100D1000FF000000FF00FF0000FF0000FF00FF00D9
:100D20000000FFFF00000000FF00FF000000FF00C8
:100D300000FF0000FF000000FF00000000000000B6
:100D400000000000000000000000000000000000A3
:100D50000000000000000000FF0000000000FF0095
:100D600000000000FF0000000000FF000000000085
:100D7000FF0000000000FF0000000000FFFFFFFF79
:100D8000FF00000000000000000000000000000064
:100D90000000000000000000000000000000000053
:100DA000FF000000FF00FFFF00FFFF00FF00FF004B
:100DB000FF00FF000000FF00FF000000FF00FF0039
:100DC0000000FF00FF000000FF0000000000000026
:100DD0000000000000000000000000000000000013
:100DE0000000000000000000FF000000FF00FF0006
:100DF0000000FF00FFFF0000FF00FF00FF00FF00FA
:100E0000FF0000FFFF00FF000000FF00FF000000E8
:100E1000FF000000000000000000000000000000D3
:100E200000000000000000000000000000000000C2
:100E300000FFFFFF0000FF000000FF00FF000000B8
:100E4000FF00FF000000FF00FF000000FF00FF00A8
:100E50000000FF0000FFFFFF000000000000000096
:100E60000000000000000000000000000000000082
:100E70000000000000000000FFFFFFFF0000FF0077
:100E80000000FF00FF000000FF00FFFFFFFF000069
:100E9000FF0000000000FF0000000000FF00000055
:100EA0000000000000000000000000000000000042
:100EB0000000000000000000000000000000000032
:100EC00000FFFFFF0000FF000000FF00FF00000028
:100ED000FF00FF000000FF00FF00FF00FF00FF0019
:100EE00000FF000000FFFF00FF0000000000000006
:100EF00000000000000000000000000000000000F2
:100F00000000000000000000FFFFFFFF0000FF00E6
:100F10000000FF00FF000000FF00FFFFFFFF0000D8
:100F2000FF00FF000000FF0000FF0000FF000000C6
:100F3000FF000000000000000000000000000000B2
:100F400000000000000000000000000000000000A1
:100F500000FFFFFF0000FF000000FF00FF00000097
:100F6000000000FFFFFF000000000000FF00FF0086
:100F70000000FF0000FFFFFF000000000000000075
:100F80000000000000000000000000000000000061
:100F90000000000000000000FFFFFFFFFF00000056
:100FA000FF0000000000FF0000000000FF00000044
:100FB0000000FF0000000000FF0000000000FF0034
:100FC0000000000000000000000000000000000021
:100FD0000000000000000000000000000000000011
:100FE000FF000000FF00FF000000FF00FF00000006
:100FF000FF00FF000000FF00FF000000FF00FF00F7
:101000000000FF0000FFFFFF0000000000000000E4
:1010100000000000000000000000000000000000D0
:101020000000000000000000FF000000FF00FF00C3
:101030000000FF00FF000000FF00FF000000FF00B5
:1010400000FF00FF000000FF00FF00000000FF00A5
:101050000000000000000000000000000000000090
:101060000000000000000000000000000000000080
:10107000FF000000FF00FF000000FF00FF00000075
:10108000FF00FF000000FF00FF00FF00FF00FF0067
:10109000FF00FF0000FF00FF000000000000000054
:1010A0000000000000000000000000000000000040
:1010B0000000000000000000FF000000FF00FF0033
:1010C0000000FF0000FF00FF00000000FF00000024
:1010D00000FF00FF0000FF000000FF00FF00000015
:1010E000FF00000000000000000000000000000001
:1010F00000000000000000000000000000000000F0
:10110000FF000000FF00FF000000FF0000FF00FFE5
:1011100000000000FF0000000000FF0000000000D1
:10112000FF0000000000FF000000000000000000C1
:1011300000000000000000000000000000000000AF
:101140000000000000000000FFFFFFFFFF000000A4
:101150000000FF00000000FF00000000FF00000092
:1011600000FF00000000FF0000000000FFFFFFFF85
:10117000FF00000000000000000000000000000070
:101180000000000000000000000000FFFFFF000062
:1011900000FF0000000000FF0000000000FF000052
:1011A000000000FF0000000000FF0000000000FF42
:1011B0000000000000FF0000000000FFFFFF000033
:1011C000000000000000000000000000000000001F
:1011D0000000000000000000FF000000000000FF11
:1011E0000000000000FF000000000000FF00000001
:1011F000000000FF0000000000FF000000000000F1
:10120000FF000000000000000000000000000000DF
:101210000000000000000000000000FFFFFF0000D1
:10122000000000FF0000000000FF0000000000FFC1
:101230000000000000FF0000000000FF00000000B0
:1012400000FF0000000000FF000000FFFFFF0000A3
:10125000000000000000000000000000000000008E
:1012600000000000FF00000000FF00FF0000FF0082
:101270000000FF000000000000000000000000006F
:10128000000000000000000000000000000000005E
:10129000000000000000000000000000000000004E
:1012A000000000000000000000000000000000003E
:1012B000000000000000000000000000000000002E
:1012C000000000000000000000000000000000001E
:1012D000000000000000000000000000000000000E
:1012E000FFFFFFFFFF000000000000000000000003
:1012F000000000FF000000000000FF0000000000F0
:1013000000FF0000000000000000000000000000DE
:1013100000000000000000000000000000000000CD
:1013200000000000000000000000000000000000BD
:1013300000000000000000000000000000000000AD
:1013400000000000000000000000000000FFFFFFA0
:10135000000000000000FF0000FFFFFFFF00FF0093
:101360000000FF0000FFFFFFFF0000000000000082
:10137000000000000000000000000000000000006D
:101380000000000000000000FF0000000000FF005F
:1013900000000000FFFFFFFF0000FF000000FF0053
:1013A000FF000000FF00FF000000FF00FFFFFFFF45
:1013B000000000000000000000000000000000002D
:1013C000000000000000000000000000000000001D
:1013D00000000000000000000000000000FFFFFF10
:1013E0000000FF000000FF00FF0000000000FF0001
:1013F0000000FF0000FFFFFF0000000000000000F1
:1014000000000000000000000000000000000000DC
:10141000000000000000000000000000FF000000CD
:101420000000FF0000FFFFFFFF00FF000000FF00C3
:10143000FF000000FF00FF000000FF0000FFFFFFB3
:10144000FF0000000000000000000000000000009D
:10145000000000000000000000000000000000008C
:1014600000000000000000000000000000FFFFFF7F
:101470000000FF000000FF00FFFFFFFF0000FF0073
:101480000000000000FFFFFF00000000000000005F
:10149000000000000000000000000000000000004C
:1014A00000000000000000000000FFFF000000FF3F
:1014B0000000FF0000FF00000000FFFFFF00000031
:1014C00000FF0000000000FF0000000000FF00001F
:1014D000000000000000000000000000000000000C
:1014E00000000000000000000000000000000000FC
:1014F00000000000000000000000000000FFFFFFEF
:101500000000FF000000FF00FF000000FF00FF00E0
:101510000000FF0000FFFFFFFF0000000000FF00D1
:1015200000FFFFFF000000000000000000000000BE
:101530000000000000000000FF0000000000FF00AD
:1015400000000000FFFFFFFF0000FF000000FF00A1
:10155000FF000000FF00FF000000FF00FF00000090
:10156000FF0000000000000000000000000000007C
:10157000000000000000000000000000000000006B
:101580000000FF00000000000000000000FFFF005E
:1015900000000000FF0000000000FF00000000004D
:1015A000FF00000000FFFFFF00000000000000003F
:1015B000000000000000000000000000000000002B
:1015C000000000000000000000000000FF0000001C
:1015D00000000000000000FFFF0000000000FF000E
:1015E00000000000FF0000000000FF0000000000FD
:1015F000FF0000FF0000FF000000FFFF00000000F0
:1016000000000000000000000000000000000000DA
:10161000FF0000000000FF0000000000FF000000CD
:10162000FF00FF0000FF0000FFFFFF000000FF00C1
:1016300000FF0000FF000000FF00000000000000AD
:10164000000000000000000000000000000000009A
:10165000000000000000000000FFFF00000000008C
:10166000FF0000000000FF0000000000FF0000007D
:101670000000FF0000000000FF00000000FFFFFF6F
:10168000000000000000000000000000000000005A
:10169000000000000000000000000000000000004A
:1016A000000000000000000000000000FFFF00FF3D
:1016B0000000FF00FF00FF00FF00FF00FF00FF0031
:1016C000FF00FF00FF00FF00FF000000000000001F
:1016D000000000000000000000000000000000000A
:1016E00000000000000000000000000000000000FA
:1016F00000000000FF00FFFF0000FFFF0000FF00F0
:10170000FF000000FF00FF000000FF00FF000000DE
:10171000FF000000000000000000000000000000CA
:1017200000000000000000000000000000000000B9
:1017300000000000000000000000000000FFFFFFAC
:101740000000FF000000FF00FF000000FF00FF009E
:101750000000FF0000FFFFFF00000000000000008D
:101760000000000000000000000000000000000079
:101770000000000000000000000000000000000069
:1017800000000000FFFFFFFF0000FF000000FF005F
:10179000FF000000FF00FF000000FF00FFFFFFFF51
:1017A0000000FF0000000000FF000000000000003B
:1017B0000000000000000000000000000000000029
:1017C00000000000000000000000000000FFFFFF1C
:1017D000FF00FF000000FF00FF000000FF00FF000F
:1017E0000000FF0000FFFFFFFF0000000000FF00FF
:1017F00000000000FF0000000000000000000000EA
:1018000000000000000000000000000000000000D8
:1018100000000000FF00FFFF0000FFFF0000FF00CE
:10182000FF0000000000FF0000000000FF000000BB
:1018300000000000000000000000000000000000A8
:101840000000000000000000000000000000000098
:1018500000000000000000000000000000FFFFFF8B
:10186000FF00FF000000000000FFFFFF000000007D
:101870000000FF00FFFFFFFF00000000000000006D
:101880000000000000000000000000000000000058
:1018900000000000000000000000FF000000000049
:1018A000FF000000FFFFFFFFFF000000FF0000003F
:1018B0000000FF0000000000FF000000000000FF2B
:1018C000FF00000000000000000000000000000019
:1018D0000000000000000000000000000000000008
:1018E000000000000000000000000000FF000000F9
:1018F000FF00FF000000FF00FF000000FF00FF00EE
:1019000000FFFF0000FFFF00FF00000000000000DC
:1019100000000000000000000000000000000000C7
:1019200000000000000000000000000000000000B7
:1019300000000000FF000000FF00FF000000FF00AB
:10194000FF000000FF0000FF00FF00000000FF009C
:101950000000000000000000000000000000000087
:101960000000000000000000000000000000000077
:10197000000000000000000000000000FF00000068
:10198000FF00FF000000FF00FF00FF00FF00FF005E
:10199000FF00FF0000FF00FF00000000000000004B
:1019A0000000000000000000000000000000000037
:1019B0000000000000000000000000000000000027
:1019C00000000000FF000000FF0000FF00FF00001B
:1019D0000000FF00000000FF00FF0000FF0000000B
:1019E000FF000000000000000000000000000000F8
:1019F00000000000000000000000000000000000E7
:101A0000000000000000000000000000FF000000D7
:101A1000FF00FF000000FF00FF000000FF0000FFCC
:101A200000FF00000000FF00000000FF00000000B9
:101A3000FF000000000000000000000000000000A7
:101A40000000000000000000000000000000000096
:101A500000000000FFFFFFFFFF00000000FF00008C
:101A60000000FF00000000FF00000000FFFFFFFF7C
:101A7000FF00000000000000000000000000000067
:101A800000000000000000000000000000FF000057
:101A90000000FF0000000000FF0000000000FF0049
:101AA000000000FF000000000000FF000000000038
:101AB000FF0000000000FF000000000000FF000029
:101AC0000000000000000000000000000000000016
:101AD00000000000FF0000000000FF000000000008
:101AE000FF0000000000FF0000000000FF000000F9
:101AF0000000FF0000000000FF0000000000FF00E9
:101B000000000000FF0000000000000000000000D6
:101B10000000000000000000000000FF00000000C6
:101B20000000FF0000000000FF0000000000FF00B8
:101B30000000000000FF00000000FF0000000000A7
:101B4000FF0000000000FF00000000FF0000000098
:101B50000000000000000000000000000000000085
:101B60000000000000000000000000000000000075
:101B70000000000000FF0000FF00FF00FF00FF006A
:101B8000FF0000FF00000000000000000000000057
:101B90000000000000000000000000000000000045
:101BA00000000000417274656661637473004865EB
:101BB000616C746800456E656D794865616C746828
:101BC000004D6F6E6579000011241FBECFEFD0E18C
:101BD000DEBFCDBF11E0A0E0B1E0E8E1FFE302C06D
:101BE00005900D92A631B107D9F729E0A6E1B1E041
:101BF00001C01D92A83BB207E1F714BE0FB6F894DE
:101C0000A8958091600088618093600010926000C8
:101C10000FBEF89480E990E042EC50E0FC01259181
:101C20003491F901FF273083029648175907B1F71D
:101C30000E946D11811102C00E944B11E3E0F7E098
:101C400080E8819399E0EF30F907D9F783E097E0D6
:101C50009093100980930F091092110981E08093ED
:101C6000280980932909809327091092140910925A
:101C70001A0910922009109226091092EE0610926D
:101C8000F00692E19093EF0698ED9093F60694E1BA
:101C90009093F5061092FA061092F9061092FE063D
:101CA0001092FD06809313090E94811A78940E9475
:101CB000801A0E94281B0C948A1F0C94000030E0AC
:101CC0003A95F1F731EC3A95F1F7C6E1D1E008ED3C
:101CD000A02E662776E02DD13BE23A95F1F70E94DF
:101CE000970E31E13A95F1F7AA9489F0C89563957A
:101CF0006C3029F033E03A95F1F70000ECCF66271D
:101D0000002430E5C30FD01DC8950000E4CF35E0B6
:101D10003A95F1F700C00DD1E091F00642E0E427DA
:101D2000E160E093F006E2E0E09336000895DE0122
:101D30004D915D91679FC001480F591FFA0128E23C
:101D4000059108B94D91059108B95D91059108B9C2
:101D500000C0059108B9480F591F059108B90591B0
:101D6000FA012A9508B961F7C895002708B90895BE
:101D70000F921F92EF93FF93FFB7E0918400FF93C0
:101D8000E2FD04C0E1FD02C0000000C0E0FF00C0B1
:101D9000E091EF06EA95E093EF06F091EE06F0FD94
:101DA00051C0EC3098F0F3E0F0938900FDE8F09337
:101DB0008800E0FB289826F4E1E00E947A10B2C087
:101DC000E5E1EA95F1F70000289AACC0E63008F1A9
:101DD00000C000C02898E0FBE4E016F40E947A10EE
:101DE000E4E0E0933600E6E0E0936F009BC0EF9301
:101DF000E0918400E2FD04C0E1FD02C0000000C0EB
:101E0000E0FF00C0E2E00000289AE0936F00EF914D
:101E1000189500C0E0FB289826F4E1E00E947A10B3
:101E200005C0E5E1EA95F1F70000289AE091EF0698
:101E3000E03009F077C0EDEFE093EF06E1E0E093EA
:101E4000EE0670C0E7E0E0938900EBE1E0938800E4
:101E500000C02898E2E000C00E947A10FDEF0090D8
:101E6000F506F019E091EF06EF17D8F4FDEF0090BA
:101E7000F506F0190090F606F019EF1790F0EDE175
:101E8000FF2700800F92EA95E1F70FE10A95F1F73D
:101E900000C00E945F0EE1E0FF270F900192EE313B
:101EA000E0F3E091EF06E03009F03CC02F933F9360
:101EB0004F935F936F937F938F939F93AF93BF9352
:101EC00078941124EE27E093EE06E2E1E093EF062A
:101ED0008091FF069091000701968093FF069093F2
:101EE0000007E091F106F091F206E115F10509F025
:101EF00009950E943B110E94821A0E94A40F11248E
:101F0000E091F306F091F406E115F10509F0099569
:101F1000BF91AF919F918F917F916F915F914F9101
:101F20003F912F91EF91EFBFFF91EF911F900F9095
:101F300018952898E2E000C00E947A10E091EF0620
:101F4000EA95E093EF060895E0911309E0FD0E9401
:101F5000301200901109002019F4A3E0B7E002C08C
:101F6000A9E0B8E021E002260092110922E02093C6
:101F70001209E0911309E0FF08952F923F924F92CA
:101F80005F926F927F928F929F92AF92BF92CF9209
:101F9000DF92EF92FF920F931F93CF93DF935091B5
:101FA0002609609128097091290980912A092090B9
:101FB0001509309016094090180950901909609041
:101FC00017091091140970901B0980901C099090BA
:101FD0001D09A0901E09B0901F0920911A09C090F8
:101FE0002109D0902209E0902409F0902509009160
:101FF0002309309120099FEF620C431CF2014491A8
:1020000041030008C12DD02D970CA81CF501449167
:1020100042030008C10DD01D0C0DED1CF7014491C9
:1020200043030008C10DD01D8A956AF44091270929
:10203000842F8695062E0694062600FA76956795D7
:1020400076F940FF66F940E860FD4FE74503000878
:10205000C10DD01D0024C038D0050CF0CFE70A9484
:10206000C038D0050CF4C0E8C058CD939A9509F05B
:10207000C3CF409112094A954093120997E009F0A5
:10208000BBCF609217094092180990921D09A09247
:102090001E0900932309E092240960932809709394
:1020A000290980932A09DF91CF911F910F91FF9009
:1020B000EF90DF90CF90BF90AF909F908F907F90E8
:1020C0006F905F904F903F902F900895E0910F098F
:1020D000F0911009019100000093B30009E0EF3086
:1020E000F00703E017E008F0F801E0930F09F09320
:1020F000100908950F931F932F93EF93E0910F0909
:10210000F091100901910093B30009E0EF30F0075E
:1021100003E017E008F0F801E0930F09F0931009CD
:10212000E8E0EA95F1F7EF912F911F910F91E0FD13
:10213000289AE0FF01C00895F4E1FA95F1F700C094
:10214000E1FD289AE1FF00C00895EAEEF2E0A6E181
:10215000B1E06091EA067091EB066D937D93319743
:10216000E1F7112408959927552728E2220F629F4D
:10217000880F080E191EA6E1B1E0A00DB11D6091F7
:10218000EA067091EB0628E4429F600D711D6D9385
:102190007C93112408958093EA069093EB060895AA
:1021A0008091F006817008952091F0062E7F209393
:1021B000F0060895882329F48091F7069091F80697
:1021C00008958091FB069091FC060895E0E6F0E00A
:1021D000808183FD089588E198E0F894808390835E
:1021E0007894FFCFF999FECF92BD81BD60BDF89480
:1021F000FA9AF99A78940895F999FECF92BD81BD23
:10220000F894F89A80B578940895129AC895C8956C
:10221000C895C895129840E180E090E020E030E059
:102220003695279596958795C895C895C895C8956C
:102230001398009B3068019B9068139AC895C895C5
:10224000C895C895415061F73093F8062093F7067A
:102250009093FC068093FB068091F7069091F80618
:102260000F9731F08091FB069091FC060F9711F4C7
:102270000C94E610089510924609009903C081E07D
:1022800080934609019905C0809146098260809338
:1022900046090C940511CF93DF93C0E0D0E0FE0116
:1022A000E059FF4F6491CE010E94F2102196C03296
:1022B000D105A9F7C0E2D0E06FEFCE010E94F21085
:1022C0006FEFCE0101960E94F210A096C11588E032
:1022D000D80791F7DF91CF910895CF9380E090E0F8
:1022E0000E94FC10C82F81E090E00E94FC10282F73
:1022F00030E0322F22272C0F311D81E02A35354561
:1023000009F080E0CF910895FC0167870895E4E12A
:10231000F9E081E091E0958B848B638B0895FC015B
:1023200082810C94D414FC019181690F61838281B4
:102330000C94BD14FC019181961B692F91838281BD
:102340000C94BD14FC0190819F7590830895FC014D
:102350009081906490830895FC01668708951F938F
:10236000CF93DF93EC01162F8A810E94BD1419834D
:102370008881877F8883DF91CF911F910895FC0129
:1023800062870895FC0163870895CF93DF93EC0182
:10239000262F898190E0FC01EE0FFF1FEE51F64DD4
:1023A00045915491FC01E60FF11D67FDFA95EE0F82
:1023B000FF1FEE51F64D85919491841B950B688516
:1023C00070E00E94B71E6115710511F461E070E0C4
:1023D000EA8186E0E89FF0011124EC5EF64F8181EE
:1023E0009281860F971F928381837E836D8388817C
:1023F000886088838981280F2F83DF91CF9108958A
:10240000FC0160870895FC0164830895DC01149643
:102410008C911497882319F155962D913C915697DC
:10242000662379F0062E000C770B6F5F7F4FAB01B0
:10243000440F551F640F751F261B370B09C0EF3F54
:1024400039F023503109F9013297E491ED30B9F7B1
:1024500056963C932E935597815014968C930895DD
:10246000EF92FF920F931F93CF93DF93C9E4D9E0CC
:1024700004E119E09801DE011F968C911F978823D3
:10248000A9F01E964C911E97082E000C990B840FF4
:10249000911D8F3F910519F014F08FEF90E097FF99
:1024A00002C080E090E01E968C931E976C9163FFB3
:1024B00026C015964D915C911697F9018181928104
:1024C000840F951F928381831796EC911797F0E004
:1024D000EE0FFF1FEE51F64DE590F4901416150621
:1024E00024F48E159F0530F40AC0452B41F0E81600
:1024F000F90628F0F901F282E182677F6C93579622
:102500002A5F3F4FF9E0A53ABF0709F0B5CF8091A8
:102510000207882309F4CCC087E1F82E8091A50931
:102520009091A6092091AB093091AC0982179307CD
:1025300009F0B9C02091AE093091AF09B9016F5FC0
:102540007F4F7093AF096093AE09F90144914F3FFB
:1025500079F5A9014E5F5F4F5093AF094093AE09E3
:10256000FB0164916F3219F4109202079CC066302F
:1025700009F08CC0FA014491C90104969093AF0907
:102580008093AE09F9013396E491E33529F49093F1
:10259000B1098093B0097AC0E53409F077C0809121
:1025A000B0099091B1099093AF098093AE096EC0C4
:1025B00047FD4093A9099091A909892F8F7047FF82
:1025C00008C02E5F3F4F3093AF092093AE09FB0147
:1025D0004491907F903BE1F0903C09F451C09039D8
:1025E00009F054C0E091AE09F091AF099F012F5F4F
:1025F0003F4F3093AF092093AE092491220FF89EEC
:10260000F0011124E75BF64F60890E947D143EC003
:10261000E091AE09F091AF099F012F5F3F4F3093DA
:10262000AF092093AE09E491473049F4F89ED001F8
:102630001124A75BB64FEE0F1C96EC9327C04B30CE
:1026400049F4F89ED0011124A75BB64FEE0F139604
:10265000EC931CC04C3549F4F89ED0011124A75BC3
:10266000B64FEE0F1A96EC9311C0443679F4F89EEB
:10267000D0011124A75BB64FEE0F1B96EC9306C05A
:10268000F89EF0011124E75BF64F408B8EEA99E04B
:102690000E9409149093AC098093AB091092A6098B
:1026A0001092A5093BCF01969093A6098093A509A6
:1026B000EE24EA94F12C888185FF37C02D893E896C
:1026C000232B09F432C086FD30C09B898A89981378
:1026D0002AC0ED89FE89BF016F5F7F4F7E8B6D8BB6
:1026E00084918F3F31F488818F7788831E8A1D8A79
:1026F0001AC03296FE8BED8BFB016491E82FF0E05F
:10270000EE0FFF1FEE53FF4F25913491CE01F901DB
:102710000995ED89FE89CF0101969E8B8D8BE49101
:10272000EA8B1B8AD2CF9F5F9B8B988195FF5EC0FF
:102730008C898F3F11F08F5F8C8B97FD02C09C8539
:1027400001C09FEF8D854985882309F449C06E85B6
:10275000662309F445C0992309F442C05091AA099F
:10276000552309F43DC0899FC00111249395892FF9
:102770009927689F9001699F300D11243395232F6D
:1027800033276B81629FC001639F900D1124939545
:10279000892F9927589F9001599F300D1124339507
:1027A000232F33278A858823E9F0E42FF0E0E050D7
:1027B000F54DE491E0588E9FF0011124F395EF2F31
:1027C000FF27B7016E1B7F0B629FC001639F900DB7
:1027D000729F900D11249C013395232F332702C043
:1027E00020E030E08B85480F498702C020E030E0D0
:1027F000F801208367960A5F1F4FF9E0C53ADF07AB
:1028000009F059CFDF91CF911F910F91FF90EF9079
:102810000895DC01ED91FC9111979F012F5F3F4FCF
:1028200011963C932E93E491E7FD03C08E2F90E028
:102830000895EF778E2F90E09695982F882797959B
:1028400087952F5F3F4FF9013197E4914E2F4F77D6
:10285000840F911DE7FDF0CF2D933C9308950F93C6
:102860001F93CF93DF93EC01162F8881082F0078F8
:102870001F869FEF9E874D871C8A877B88831A86D9
:10288000198629831C829B838A81833069F4011114
:1028900001C0122F81E091E09093290980932809CB
:1028A00081E08093270907C0622F0E94BD1460E079
:1028B0008A810E94D414002311F0198B01C0188B57
:1028C000E091A709F091A80989E0189FE00DF11D9A
:1028D0001124339685919491009719F41E8A1D8ACC
:1028E00007C01B8AFC0124912A8B01969E8B8D8B3D
:1028F000DF91CF911F910F910895CF93DF93A82F70
:10290000B0E097E1899FF0011124E75BF64F8081E9
:1029100085FF02C087FD2EC0211118C097E19A9F44
:10292000F0019B9FF00D1124E75BF64F9785911105
:1029300002C086FF158697E19A9FF0019B9FF00DDC
:102940001124E75BF64F8F7B808314C0822F242FE6
:1029500097E19A9FE0019B9FD00D1124C75BD64F52
:1029600018821E8A1D8A482FCE010E942F1488814A
:1029700080628883DF91CF910895992777278330EC
:1029800008F00895E2EEF9E2660F771FE60FF71FF1
:10299000A591B491E4E1F9E026E0289FE00DF11D56
:1029A000A183B2831124089599277727E4E1F9E000
:1029B00026E0289FE00DF11D6E3F31F4609127095C
:1029C0006E7F609327090BC06F3F31F46091270938
:1029D0006E6F6093270903C07BE2760F7583112425
:1029E000089522002400260028002B002D0030002E
:1029F0003300360039003D004000440048004C00E0
:102A0000510056005B00600066006C0073007900A6
:102A10008100880090009900A200AC00B600C100BF
:102A2000CC00D800E500F3000101100121013201C2
:102A3000440157016C0181019801B001CA01E5010F
:102A400002022102410264028802AE02D70203039D
:102A5000300361039403CB03050442048304C704D9
:102A600010055D05AF0505066106C2062907960734
:102A70000908830805098E09200ABA0A5D0B0A0CA9
:102A8000C10C840D510E2B0F121007110A121D13C9
:102A900040147415BA1614188319071BA31C571E6B
:102AA00024200E22142439267F28E82A752D293067
:102AB00006330F364539AD3C49401B442848734C1A
:102AC000FE50CF55EA5A51600C661D6C8B725A79D4
:102AD000928037885090E598FDA19FABD3B5A3C0F5
:102AE00000000000000000000000000000000000E6
:102AF00000000000000000000000000000000000D6
:102B0000000306090C101316191C1F2225282B2E52
:102B1000313336393C3F414447494C4E5153555867
:102B20005A5C5E60626466686A6B6D6F7071737424
:102B3000757678797A7A7B7C7D7D7E7E7E7F7F7FDD
:102B40007F7F7F7F7E7E7E7D7D7C7B7A7A797876C3
:102B500075747371706F6D6B6A68666462605E5CD9
:102B60005A585553514E4C494744413F3C393633EE
:102B7000312E2B2825221F1C191613100C090603B1
:102B800000FDFAF7F4F0EDEAE7E4E1DEDBD8D5D2B8
:102B9000CFCDCAC7C4C1BFBCB9B7B4B2AFADABA883
:102BA000A6A4A2A09E9C9A9896959391908F8D8CA6
:102BB0008B8A8887868685848383828282818181CD
:102BC0008181818182828283838485868687888AC7
:102BD0008B8C8D8F9091939596989A9C9EA0A2A491
:102BE000A6A8ABADAFB2B4B7B9BCBFC1C4C7CACD5C
:102BF000CFD2D5D8DBDEE1E4E7EAEDF0F4F7FAFD79
:102C0000808182838485868788898A8B8C8D8E8F4C
:102C1000909192939495969798999A9B9C9D9E9F3C
:102C2000A0A1A2A3A4A5A6A7A8A9AAABACADAEAF2C
:102C3000B0B1B2B3B4B5B6B7B8B9BABBBCBDBEBF1C
:102C4000C0C1C2C3C4C5C6C7C8C9CACBCCCDCECF0C
:102C5000D0D1D2D3D4D5D6D7D8D9DADBDCDDDEDFFC
:102C6000E0E1E2E3E4E5E6E7E8E9EAEBECEDEEEFEC
:102C7000F0F1F2F3F4F5F6F7F8F9FAFBFCFDFEFFDC
:102C8000000102030405060708090A0B0C0D0E0FCC
:102C9000101112131415161718191A1B1C1D1E1FBC
:102CA000202122232425262728292A2B2C2D2E2FAC
:102CB000303132333435363738393A3B3C3D3E3F9C
:102CC000404142434445464748494A4B4C4D4E4F8C
:102CD000505152535455565758595A5B5C5D5E5F7C
:102CE000606162636465666768696A6B6C6D6E6F6C
:102CF000707172737475767778797A7B7C7D7E7F5C
:102D000000020406080A0C0E10121416181A1C1ED3
:102D100020222426282A2C2E30323436383A3C3EC3
:102D200040424446484A4C4E50525456585A5C5EB3
:102D300060626466686A6C6E70727476787A7C7EA3
:102D40007F7D7B79777573716F6D6B696765636183
:102D50005F5D5B59575553514F4D4B494745434173
:102D60003F3D3B39373533312F2D2B292725232163
:102D70001F1D1B19171513110F0D0B090705030153
:102D8000FFFDFBF9F7F5F3F1EFEDEBE9E7E5E3E143
:102D9000DFDDDBD9D7D5D3D1CFCDCBC9C7C5C3C133
:102DA000BFBDBBB9B7B5B3B1AFADABA9A7A5A3A123
:102DB0009F9D9B99979593918F8D8B898785838113
:102DC00080828486888A8C8E90929496989A9C9E13
:102DD000A0A2A4A6A8AAACAEB0B2B4B6B8BABCBE03
:102DE000C0C2C4C6C8CACCCED0D2D4D6D8DADCDEF3
:102DF000E0E2E4E6E8EAECEEF0F2F4F6F8FAFCFEE3
:102E00007F7F7F7F7F7F7F7F7F7F7F7F7F7F7F7FD2
:102E10007F7F7F7F7F7F7F7F7F7F7F7F7F7F7F7FC2
:102E20007F7F7F7F7F7F7F7F7F7F7F7F7F7F7F7FB2
:102E30007F7F7F7F7F7F7F7F7F7F7F7F7F7F7F7FA2
:103100000309131E28313A40464C5054585B5E6107
:10311000636567696B6C6E6F7071727374757677C7
:10312000777879797A7A7B7B7C7C7C7D7D7D7E7EED
:103130007E7E7F7F7F7F7F7F7F7F7F7F7F7F7F7FA1
:103140007F7F7F7F7F7F7F7F7F7F7F7F7F7E7E7E92
:103150007E7D7D7D7C7C7C7B7B7A7A7979787777C4
:10316000767574737271706F6E6C6B69676563618D
:103170005E5B5854504C46403A31281E13090300F8
:10318000C6CCD5DBDFE3E5E7E9EAEBECEDEEEFEF0C
:10319000F0F0F0F1F1F1F1F2F2F2F2F2F2F2F2F318
:1031A000F3F3F3F3F3F3F3F3F3F3F3F3F3F3F3F3EF
:1031B000F3F3F3F3F3F3F3F3F3F3F3F3F3F3F3F3DF
:1031C000F3F3F3F3F3F3F3F3F3F3F3F3F3F3F3F3CF
:1031D000F3F3F3F3F3F3F3F3F3F3F3F3F3F3F3F3BF
:1031E000F2F2F2F2F2F2F2F2F1F1F1F1F0F0F0EFCC
:1031F000EFEEEDECEBEAE9E7E5E3DFDBD5CCC6008B
:1032000000283D42302D2C2B2C2D2E2F30323335E3
:1032100037393B3D3F414345484A4C4E5053555743
:10322000595B5D5F61636567696B6C6E7071737428
:10323000757778797A7B7C7D7D7E7E7F7F7F7F7FCF
:103240007F7F7F7F7F7F7E7E7D7D7C7B7A797877B5
:1032500075747371706E6C6B69676563615F5D5BDC
:1032600059575553504E4C4A484543413F3D3B39D1
:1032700037353332302F2E2D2C2B2C2D30423D283C
:1032800000E9E5FED4D7D7D7D6D4D2D0CECCCAC8A1
:10329000C6C3C1BFBDBAB8B6B4B1AFADABA9A7A5DF
:1032A000A3A19F9E9C9A999795949391908F8D8CB2
:1032B0008B8A8988888786858584848483838383B1
:1032C0008383838383848484858586878888898AA9
:1032D0008B8C8D8F909193949597999A9C9E9FA19A
:1032E000A3A5A7A9ABADAFB1B4B6B8BABDBFC1C3B2
:1032F000C6C8CACCCED0D2D4D6D7D7D7D4FEE5E96B
:10330000F9F8F9F5EBE1DDDEE0E2E4E5E6E5E4E23B
:10331000DED9D2CAC1B7ACA299918A868381808056
:103320008182838586888A8C8D8F909293959697DB
:1033300098999A9B9B9C9D9D9D9E9E9E9F9F9F9FC3
:103340009F9F9F9E9E9E9D9D9D9C9B9B9A999897BB
:1033500096959392908F8D8C8A88868583828180C2
:10336000808183868A9199A2ACB7C1CAD2D9DEE2A4
:10337000E4E5E6E5E4E2E0DEDDE1EBF5F9F8F900AD
:103380000708070B151F2322201E1C1B1A1B1C1EBF
:1033900022272E363F49545E676F767A7E7F7F7F85
:1033A0007F7E7D7B7A7876747371706E6D6B6A69DF
:1033B00068676665656464636362626261616161D6
:1033C00061616162626263636364656566676869BF
:1033D0006A6B6D6E7071737476787A7B7D7E7F7F99
:1033E0007F7F7E7A766F675E54493F362E27221E96
:1033F0001C1B1A1B1C1E2022231F150B070807006D
:103400001F313D444E5354565A5F64696E74767949
:103410007C7F7F7F7F7F7F7F7F7F7F7F7F7F7F7FBF
:103420007F7F7F7F7F7F7F7F7F7F7F7F7F7F7F7FAC
:103430007F7F7F7F7F7F7F7F7F7F7F7F7F7F7F7F9C
:103440007F7F7F7F7F7F7F7F7F7F7F7F7F7F7F7F8C
:103450007F7F7F7F7F7F7F7F7F7F7F7F7F7F7F7F7C
:103460007F7F7F7F7F7F7F7F7F7F7F7F7F7F7F7F6C
:103470007F7F7F7F7F7F7F7F7F7F7F7C7871684CBE
:103480002C1C120C0A0B0A05FDF3E9DFD4CAC0B7E5
:10349000AEA69E97918B868582808080808080807A
:1034A000808080808080808080808080808080801C
:1034B000808080808080808080808080808080800C
:1034C00080808080808080808080808080808080FC
:1034D00080808080808080808080808080808080EC
:1034E00080808080808080808080808080808080DC
:1034F000808080808087919DACC4CBD4DDF2FAFAC5
:10350000089508950C94FA1ACF92DF92EF92FF92E9
:103510000F931F93CF93DF93C82ED62F8A01D22EFD
:10352000C0E08AE0E82EF12C2C2D2C1B0115110592
:1035300011F4C11107C0C801B7010E94A31E40E1E8
:10354000480F05C0DD2011F040E101C040E06D2FC3
:10355000822F0E94B310C801B7010E94A31E8B01E5
:10356000CF5FC53009F7DF91CF911F910F91FF9089
:10357000EF90DF90CF900895DF92EF92FF920F933C
:103580001F93CF93DF937C01D62E8A01EC01FE01BD
:10359000EE19FF09E00FF11FE491EE2349F0EF77F8
:1035A00040EE4E0F6D2D8C2F0E94B3102196EFCF61
:1035B000DF91CF911F910F91FF90EF90DF900895D1
:1035C00040520C94B3100F931F93CF93DF938C0151
:1035D000C0E0D0E0C017D10744F40E94D010882387
:1035E000E1F30E94D4102196F5CFDF91CF911F9186
:1035F0000F9108958091B509882301F18091B60952
:10360000811119C08091B3098093B609E091B7097F
:10361000F0E0E152FF4FE491E7B99091B709809152
:10362000B409890F8093B709882311F08D3031F4E4
:103630001092B509089581508093B6090895860FB8
:1036400099270895860F99270895860F9927089539
:103650008CEE90E00E94CB100E94531B81E090E022
:103660000E94E31A80E00E94DA1090933F09809351
:103670003E092091440930914509A9014095509592
:1036800048235923509341094093400980959095D0
:103690008223932390934309809342090E94911BB4
:1036A0000E942C1DDBCF0F931F93CF93DF930E94BB
:1036B000391F08E210E0B8010E94B71E90932D094F
:1036C00080932C090E94391FC2E1D0E0BE010E9404
:1036D000B71E90932F0980932E09109233091092F0
:1036E00032090E94391FBE010E94B71E9093310912
:1036F000809330090E94391FBE010E94B71E90932B
:103700003709809336090E94391FB8010E94B71EFD
:103710009093350980933409DF91CF911F910F91D8
:103720000895AF92BF92CF92DF92EF92FF920F93E4
:103730001F93CF93DF93809140099091410980328C
:103740009105D1F04CF48230910519F18031910549
:10375000C1F0019721F510C080389105D1F024F413
:103760008034910589F01BC0811521E0920749F052
:103770008115924049F013C061E070E080E090E074
:103780000CC06FEF7FEFFACF60E070E08FEF9FEF3C
:1037900004C060E070E081E090E00E94F31D809141
:1037A0003E0990913F0990934509809344092091E7
:1037B0003809309139092F5F3F4F309339092093F1
:1037C000380980910C0190910D01821793070CF03C
:1037D00040C0209134093091350940912C09509115
:1037E0002D092417350734F42F5F3F4F30933509E7
:1037F0002093340920913409309135094217530739
:1038000034F4215031093093350920933409209143
:1038100036093091370940912E0950912F0924170C
:10382000350734F42F5F3F4F309337092093360923
:1038300020913609309137094217530734F421504B
:1038400031093093370920933609109239091092C3
:10385000380920913A0930913B09243031052CF088
:10386000181619066CF4019707C0232B49F4181693
:10387000190634F08CE291E090930D0180930C01D5
:103880008091320990913309019690933309809386
:103890003209409106015091070122E130E0241BDA
:1038A000350B82179307ACF08091040190910501CC
:1038B000C8E2D0E0C81BD90B0E94391FBE010E948C
:1038C000B71E9093310980933009109233091092FA
:1038D0003209A0900601B0900701C0900401D09079
:1038E0000501E0903209F090330900913009109100
:1038F0003109209102013091030140910001509162
:10390000010160912E0970912F0980912C099091ED
:103910002D090E94CC1D8823C1F161E070E08091E7
:103920003A0990913B090E94221B90933B09809396
:103930003A0985309105A4F06BEF7FEF0E94221BBE
:1039400090933B0980933A0961E070E080913C09D3
:1039500090913D090E94251B90933D0980933C095D
:103960008091040190910501C8E2D0E0C81BD90BF9
:103970000E94391FBE010E94B71E909331098093A7
:1039800030091092330910923209A0900A01B090C8
:103990000B01C0900801D0900901E0903609F09029
:1039A00037090091340910913509209102013091B5
:1039B0000301409100015091010160912E09709125
:1039C0002F0980912C0990912D090E94CC1D8823EC
:1039D000C1F16FEF7FEF80913A0990913B090E940E
:1039E000221B90933B0980933A096FEF7FEF809100
:1039F0000E0190910F010E941F1B90930F01809365
:103A00000E0180913A0990913B091816190624F08D
:103A100010923B0910923A09809108019091090196
:103A2000C8E2D0E0C81BD90B0E94391FBE010E941A
:103A3000B71E90933509809334091092370910927C
:103A40003609DF91CF911F910F91FF90EF90DF909A
:103A5000CF90BF90AF9008950F930E94A51044EAB5
:103A60005BE160E070E081E090E00E94BC1A409170
:103A70003A0950913B0920E060E070E08EE090E070
:103A80000E94841A40912C0950912D0920E060E099
:103A900070E083E190E00E94841A40912E095091D9
:103AA0002F0920E060E070E088E190E00E94841A35
:103AB0004EEA5BE160E070E08BE190E00E94BC1AAE
:103AC00040910E0150910F0120E060E070E085E22E
:103AD00090E00E94841A45EB5BE161E170E081E0D7
:103AE00090E00E94BC1A409110015091110120E019
:103AF00061E170E080E190E00E94841A41EC5BE1BA
:103B000061E170E08BE190E00E94BC1A40913C09B9
:103B100050913D0920E061E170E085E290E00E9473
:103B2000841A2091020130910301409100015091CB
:103B3000010160912E0970912F0900E380912C09F9
:103B400090912D090E94391E2091060130910701A4
:103B5000409104015091050160913209709133093F
:103B600004E280913009909131090E94391E209120
:103B70000A0130910B0140910801509109016091B7
:103B800036097091370908E580913409909135091B
:103B90000E94391E0F910895AF92BF92CF92DF928B
:103BA000EF92FF920F931F93480F591F4017510731
:103BB00084F0260F371F2E153F055CF0C00ED11E76
:103BC000C816D90634F0AE0CBF1C81E0A616B706A5
:103BD0000CF480E01F910F91FF90EF90DF90CF9059
:103BE000BF90AF900895EF92FF920F931F93CF93E2
:103BF000DF9300912C0910912D09F801E80FF91FAE
:103C0000F0932D09E0932C09C0912E09D0912F0932
:103C10009E01260F371F30932F0920932E09F7FDA1
:103C200019C0E0900001F090010186E090E0B7013A
:103C30000E94B71EE60FF71FB89764F437FD0AC05D
:103C40008CE090E0B7010E94B71E260F371F22318B
:103C5000310544F010932D0900932C09D0932F09BE
:103C6000C0932E09DF91CF911F910F91FF90EF909C
:103C700008955F926F927F928F929F92AF92BF92C0
:103C8000CF92DF92EF92FF920F931F93CF93DF9328
:103C9000883291050CF047C0623171050CF043C0C9
:103CA000502E4901EA017B018C013C016B01C20EDF
:103CB000D31E560181E0A81AB108C301801B910BE5
:103CC0008C179D07B4F488E2681671042CF4452D16
:103CD000B701C3010E94E01A83E1C816D1042CF495
:103CE000452DB501C3010E94E01A8FEF681A780ACA
:103CF000E4CFCC24C394D12CC00FD11F2197C8147A
:103D0000D9048CF45701AC0CBD1C452DB501C8017C
:103D10000E94E01A452DB501CE010E94E01A8FEFF6
:103D2000C81AD80AECCFDF91CF911F910F91FF9065
:103D3000EF90DF90CF90BF90AF909F908F907F904B
:103D40006F905F900895AA1BBB1B51E107C0AA1F8B
:103D5000BB1FA617B70710F0A61BB70B881F991F2C
:103D60005A95A9F780959095BC01CD01089597FBD0
:103D7000072E16F4009407D077FD09D00E94A31EE9
:103D800007FC05D03EF4909581959F4F089570955E
:103D900061957F4F0895A1E21A2EAA1BBB1BFD015E
:103DA0000DC0AA1FBB1FEE1FFF1FA217B307E4071A
:103DB000F50720F0A21BB30BE40BF50B661F771F72
:103DC000881F991F1A9469F7609570958095909552
:103DD0009B01AC01BD01CF0108958F929F92AF92DC
:103DE000BF92CF92DF92EF92FF92CF93DF93EC01DD
:103DF000688179818A819B816115710581059105B1
:103E000021F464E279ED8BE597E02DE133EF41E0B9
:103E100050E00E94491F49015A019B01AC01A7EAE9
:103E2000B1E40E94681F6B017C01ACEEB4EFA50108
:103E300094010E94761FDC01CB018C0D9D1DAE1DEF
:103E4000BF1DB7FF03C00197A109B04888839983BC
:103E5000AA83BB839F77DF91CF91FF90EF90DF9094
:103E6000CF90BF90AF909F908F9008950E94ED1ECD
:103E7000089582E191E00E94ED1E0895A0E0B0E077
:103E80008093120190931301A0931401B093150134
:103E90000895052E97FB1EF400940E94601F57FDA5
:103EA00007D00E94CB1E07FC03D04EF40C94601F79
:103EB00050954095309521953F4F4F4F5F4F089556
:103EC00090958095709561957F4F8F4F9F4F089586
:103ED0000E947B1FA59F900DB49F900DA49F800D05
:103EE000911D11240895B7FF0C94681F0E94681F4C
:103EF000821B930B0895A29FB001B39FC001A39FA3
:103F0000700D811D1124911DB29F700D811D112412
:083F1000911D0895F894FFCF04
:103F18000300030003000300050003002C016400F4
:063F28006400010000002E
:00000001FF
