:100000000C94690E0C94E20E0C94E20E0C94E20E29
:100010000C94E20E0C94E20E0C94E20E0C94E20EA0
:100020000C94E20E0C94E20E0C94E20E0C94E20E90
:100030000C94E20E0C943D0F0C947C0F0C94E20E89
:100040000C94E20E0C94E20E0C94E20E0C94E20E70
:100050000C94E20E0C94E20E0C94E20E0C94E20E60
:100060000C94E20E0C94E20E0C94E20E0C94E20E50
:100070005A5501200101003808000000000000006E
:100080000000000000000000000000000000000070
:10009000810045005DFF5E1027FF2AD22B7D210CD9
:1000A00022FB850084008903888D81096F02444208
:1000B00047004501B083B300B10124B925578A1D1B
:1000C0008B0309120C12141218121F1227122C1271
:1000D00031123412441247124A12851288128B12BE
:1000E00000408891D2E4ADB5B6BEBFFF000000006D
:1000F0000000000000000000000000000000000000
:1001000000000000000000000000000000000000EF
:1001100000000000000000000000000000000000DF
:1001200000000000000000000000000000000000CF
:1001300000000000000000000000000000000000BF
:100140000000FF0000000000FF0000000000FF00B2
:1001500000000000FF0000000000FF0000000000A1
:10016000000000000000FF00000000000000000090
:10017000000000000000000000000000000000007F
:10018000000000FF00FF000000FF00FF000000FF74
:1001900000FF000000000000000000000000000060
:1001A000000000000000000000000000000000004F
:1001B000000000000000000000000000000000003F
:1001C000000000000000000000000000000000002F
:1001D00000000000000000FF00FF0000FFFFFFFF25
:1001E000FF0000FF00FF000000FF00FF0000FFFF16
:1001F000FFFFFF0000FF00FF000000000000000004
:1002000000000000000000000000000000000000EE
:1002100000000000FF00000000FFFFFF0000FF00E3
:10022000FF00FF00FF00FF00000000FFFFFF0000D5
:100230000000FF00FF00FF00FF00FF0000FFFFFFC6
:1002400000000000FF0000000000000000000000AF
:10025000000000000000000000000000000000009E
:10026000FFFF0000FF00FFFF0000FF00000000FF95
:1002700000000000FF00000000FF00000000FF0081
:1002800000FFFF00FF0000FFFF0000000000000073
:10029000000000000000000000000000000000005E
:1002A000000000000000000000FF00000000FF0050
:1002B000FF000000FF00FF00000000FF0000000042
:1002C000FF00FF00FF00FF0000FF000000FFFF0035
:1002D000FF0000000000000000000000000000001F
:1002E000000000000000000000000000FF0000000F
:1002F0000000FF0000000000FF0000000000000000
:1003000000000000000000000000000000000000ED
:1003100000000000000000000000000000000000DD
:1003200000000000000000000000000000000000CD
:100330000000000000FF00000000FF0000000000BF
:10034000FF00000000FF0000000000FF00000000B0
:1003500000FF000000000000FF0000000000FF00A0
:100360000000000000FF000000000000000000008E
:100370000000000000000000000000FF000000007E
:100380000000FF0000000000FF000000000000FF70
:100390000000000000FF0000000000FF000000005F
:1003A000FF0000000000FF00000000FF0000000050
:1003B000000000000000000000000000000000003D
:1003C00000000000000000000000FF000000FF002F
:1003D000FF00FF0000FFFFFF00000000FF00000023
:1003E00000FFFFFF0000FF00FF00FF000000FF0014
:1003F00000000000000000000000000000000000FD
:1004000000000000000000000000000000000000EC
:100410000000000000000000FF0000000000FF00DE
:100420000000FFFFFFFFFF000000FF0000000000D2
:10043000FF000000000000000000000000000000BD
:1004400000000000000000000000000000000000AC
:10045000000000000000000000000000000000009C
:10046000000000000000000000000000000000008C
:1004700000000000000000FFFF00000000FFFF0080
:100480000000FFFF0000000000000000000000006E
:10049000000000000000000000000000000000005C
:1004A000000000000000000000000000000000004C
:1004B0000000FFFFFFFFFF00000000000000000041
:1004C000000000000000000000000000000000002C
:1004D000000000000000000000000000000000001C
:1004E000000000000000000000000000000000000C
:1004F00000000000000000000000000000000000FC
:1005000000000000000000FFFF00000000FFFF00EF
:1005100000000000000000000000000000000000DB
:1005200000000000000000000000000000000000CB
:1005300000000000FF00000000FF0000000000FFBE
:1005400000000000FF00000000FF0000000000FFAE
:1005500000000000FF00000000000000000000009C
:10056000000000000000000000000000000000008B
:1005700000000000000000000000FFFF000000FF7E
:100580000000FF0000FF0000FF0000FF0000FF0070
:1005900000FF0000FF0000FF0000FF000000FFFF61
:1005A000000000000000000000000000000000004B
:1005B000000000000000000000000000000000003B
:1005C0000000FF00000000FFFF0000000000FF002F
:1005D00000000000FF0000000000FF00000000001D
:1005E000FF00000000FFFFFF00000000000000000F
:1005F00000000000000000000000000000000000FB
:10060000000000000000000000FFFFFF0000FF00EE
:100610000000FF0000000000FF00000000FF0000DD
:100620000000FF00000000FF00000000FFFFFFFFD0
:10063000FF000000000000000000000000000000BB
:1006400000000000000000000000000000000000AA
:10065000FFFFFFFFFF0000000000FF00000000FFA1
:1006600000000000FFFF000000000000FF00FF008E
:100670000000FF0000FFFFFF00000000000000007E
:10068000000000000000000000000000000000006A
:100690000000000000000000000000FF000000005B
:1006A000FFFF000000FF00FF0000FF0000FF000050
:1006B000FFFFFFFFFF00000000FF0000000000FF41
:1006C000000000000000000000000000000000002A
:1006D000000000000000000000000000000000001A
:1006E000FFFFFFFFFF00FF0000000000FFFFFFFF14
:1006F000000000000000FF0000000000FF00FF00FD
:100700000000FF0000FFFFFF0000000000000000ED
:1007100000000000000000000000000000000000D9
:1007200000000000000000000000FFFF000000FFCC
:1007300000000000FF0000000000FFFFFFFF0000BE
:10074000FF000000FF00FF000000FF0000FFFFFFB0
:100750000000000000000000000000000000000099
:100760000000000000000000000000000000000089
:10077000FFFFFFFFFF0000000000FF00000000FF80
:100780000000000000FF00000000FF00000000006B
:10079000FF0000000000FF0000000000000000005B
:1007A0000000000000000000000000000000000049
:1007B000000000000000000000FFFFFF0000FF003D
:1007C0000000FF00FF000000FF0000FFFFFF00002F
:1007D000FF000000FF00FF000000FF0000FFFFFF20
:1007E0000000000000000000000000000000000009
:1007F00000000000000000000000000000000000F9
:1008000000FFFFFF0000FF000000FF00FF000000EE
:10081000FF0000FFFFFFFF0000000000FF000000DE
:1008200000FF000000FFFF000000000000000000CB
:1008300000000000000000000000000000000000B8
:1008400000000000000000000000000000000000A8
:100850000000000000FFFF00000000FFFF0000009C
:1008600000000000000000FFFF00000000FFFF008C
:100870000000000000000000000000000000000078
:100880000000000000000000000000000000000068
:1008900000000000000000000000000000FFFF005A
:1008A000000000FFFF00000000000000000000FF4B
:1008B000FF00000000FFFF000000FFFF000000003D
:1008C0000000000000000000000000000000000028
:1008D0000000000000000000000000000000000018
:1008E00000FF00000000FF00000000FF000000000B
:1008F0000000FF000000000000FF000000000000FA
:1009000000000000000000000000000000000000E7
:1009100000000000000000000000000000000000D7
:10092000000000000000000000000000FFFFFFFFCB
:10093000FF00000000000000FFFFFFFFFF000000BD
:1009400000000000000000000000000000000000A7
:100950000000000000000000000000000000000097
:10096000000000000000000000000000000000FF88
:10097000000000000000FF000000000000FF000079
:100980000000FF00000000FF000000000000000069
:100990000000000000000000000000000000000057
:1009A0000000000000000000000000000000000047
:1009B00000FFFFFF0000FF000000FF00000000FF3D
:1009C00000000000FF0000000000FF000000000029
:1009D000000000000000FF00000000000000000018
:1009E0000000000000000000000000000000000007
:1009F000000000000000000000FFFFFF0000FF00FB
:100A00000000FF00FF00FFFFFF00FF00FF00FF00EE
:100A1000FF00FFFFFF00FF000000000000FFFFFFDE
:100A200000000000000000000000000000000000C6
:100A300000000000000000000000000000000000B6
:100A400000FFFFFF0000FF000000FF00FF000000AC
:100A5000FF00FFFFFFFFFF00FF000000FF00FF009F
:100A60000000FF00FF000000FF0000000000000089
:100A70000000000000000000000000000000000076
:100A80000000000000000000FFFFFFFF000000FF6B
:100A90000000FF0000FF0000FF0000FFFFFF00005C
:100AA00000FF0000FF0000FF0000FF00FFFFFFFF4E
:100AB0000000000000000000000000000000000036
:100AC0000000000000000000000000000000000026
:100AD00000FFFFFF0000FF000000FF00FF0000001C
:100AE0000000FF0000000000FF0000000000FF0009
:100AF0000000FF0000FFFFFF0000000000000000FA
:100B000000000000000000000000000000000000E5
:100B10000000000000000000FFFFFFFF000000FFDA
:100B20000000FF0000FF0000FF0000FF0000FF00CA
:100B300000FF0000FF0000FF0000FF00FFFFFFFFBD
:100B400000000000000000000000000000000000A5
:100B50000000000000000000000000000000000095
:100B6000FFFFFFFFFF00FF0000000000FF0000008C
:100B70000000FFFFFFFF0000FF0000000000FF007B
:100B800000000000FFFFFFFFFF000000000000006A
:100B90000000000000000000000000000000000055
:100BA0000000000000000000FFFFFFFFFF00FF004B
:100BB00000000000FF0000000000FFFFFFFF00003A
:100BC000FF0000000000FF0000000000FF00000028
:100BD0000000000000000000000000000000000015
:100BE0000000000000000000000000000000000005
:100BF00000FFFFFF0000FF000000FF00FF000000FB
:100C00000000FF0000000000FF0000FFFF00FF00E9
:100C10000000FF0000FFFFFF0000000000000000D8
:100C200000000000000000000000000000000000C4
:100C30000000000000000000FF000000FF00FF00B7
:100C40000000FF00FF000000FF00FFFFFFFFFF00AC
:100C5000FF000000FF00FF000000FF00FF00000099
:100C6000FF00000000000000000000000000000085
:100C70000000000000000000000000000000000074
:100C800000FFFFFF00000000FF0000000000FF0069
:100C900000000000FF0000000000FF000000000056
:100CA000FF00000000FFFFFF000000000000000048
:100CB0000000000000000000000000000000000034
:100CC00000000000000000000000FFFFFF00000027
:100CD00000FF0000000000FF0000000000FF000017
:100CE000000000FF0000FF0000FF000000FFFF0009
:100CF00000000000000000000000000000000000F4
:100D000000000000000000000000000000000000E3
:100D1000FF000000FF00FF0000FF0000FF00FF00D9
:100D20000000FFFF00000000FF00FF000000FF00C8
:100D300000FF0000FF000000FF00000000000000B6
:100D400000000000000000000000000000000000A3
:100D50000000000000000000FF0000000000FF0095
:100D600000000000FF0000000000FF000000000085
:100D7000FF0000000000FF0000000000FFFFFFFF79
:100D8000FF00000000000000000000000000000064
:100D90000000000000000000000000000000000053
:100DA000FF000000FF00FFFF00FFFF00FF00FF004B
:100DB000FF00FF000000FF00FF000000FF00FF0039
:100DC0000000FF00FF000000FF0000000000000026
:100DD0000000000000000000000000000000000013
:100DE0000000000000000000FF000000FF00FF0006
:100DF0000000FF00FFFF0000FF00FF00FF00FF00FA
:100E0000FF0000FFFF00FF000000FF00FF000000E8
:100E1000FF000000000000000000000000000000D3
:100E200000000000000000000000000000000000C2
:100E300000FFFFFF0000FF000000FF00FF000000B8
:100E4000FF00FF000000FF00FF000000FF00FF00A8
:100E50000000FF0000FFFFFF000000000000000096
:100E60000000000000000000000000000000000082
:100E70000000000000000000FFFFFFFF0000FF0077
:100E80000000FF00FF000000FF00FFFFFFFF000069
:100E9000FF0000000000FF0000000000FF00000055
:100EA0000000000000000000000000000000000042
:100EB0000000000000000000000000000000000032
:100EC00000FFFFFF0000FF000000FF00FF00000028
:100ED000FF00FF000000FF00FF00FF00FF00FF0019
:100EE00000FF000000FFFF00FF0000000000000006
:100EF00000000000000000000000000000000000F2
:100F00000000000000000000FFFFFFFF0000FF00E6
:100F10000000FF00FF000000FF00FFFFFFFF0000D8
:100F2000FF00FF000000FF0000FF0000FF000000C6
:100F3000FF000000000000000000000000000000B2
:100F400000000000000000000000000000000000A1
:100F500000FFFFFF0000FF000000FF00FF00000097
:100F6000000000FFFFFF000000000000FF00FF0086
:100F70000000FF0000FFFFFF000000000000000075
:100F80000000000000000000000000000000000061
:100F90000000000000000000FFFFFFFFFF00000056
:100FA000FF0000000000FF0000000000FF00000044
:100FB0000000FF0000000000FF0000000000FF0034
:100FC0000000000000000000000000000000000021
:100FD0000000000000000000000000000000000011
:100FE000FF000000FF00FF000000FF00FF00000006
:100FF000FF00FF000000FF00FF000000FF00FF00F7
:101000000000FF0000FFFFFF0000000000000000E4
:1010100000000000000000000000000000000000D0
:101020000000000000000000FF000000FF00FF00C3
:101030000000FF00FF000000FF00FF000000FF00B5
:1010400000FF00FF000000FF00FF00000000FF00A5
:101050000000000000000000000000000000000090
:101060000000000000000000000000000000000080
:10107000FF000000FF00FF000000FF00FF00000075
:10108000FF00FF000000FF00FF00FF00FF00FF0067
:10109000FF00FF0000FF00FF000000000000000054
:1010A0000000000000000000000000000000000040
:1010B0000000000000000000FF000000FF00FF0033
:1010C0000000FF0000FF00FF00000000FF00000024
:1010D00000FF00FF0000FF000000FF00FF00000015
:1010E000FF00000000000000000000000000000001
:1010F00000000000000000000000000000000000F0
:10110000FF000000FF00FF000000FF0000FF00FFE5
:1011100000000000FF0000000000FF0000000000D1
:10112000FF0000000000FF000000000000000000C1
:1011300000000000000000000000000000000000AF
:101140000000000000000000FFFFFFFFFF000000A4
:101150000000FF00000000FF00000000FF00000092
:1011600000FF00000000FF0000000000FFFFFFFF85
:10117000FF00000000000000000000000000000070
:101180000000000000000000000000FFFFFF000062
:1011900000FF0000000000FF0000000000FF000052
:1011A000000000FF0000000000FF0000000000FF42
:1011B0000000000000FF0000000000FFFFFF000033
:1011C000000000000000000000000000000000001F
:1011D0000000000000000000FF000000000000FF11
:1011E0000000000000FF000000000000FF00000001
:1011F000000000FF0000000000FF000000000000F1
:10120000FF000000000000000000000000000000DF
:101210000000000000000000000000FFFFFF0000D1
:10122000000000FF0000000000FF0000000000FFC1
:101230000000000000FF0000000000FF00000000B0
:1012400000FF0000000000FF000000FFFFFF0000A3
:10125000000000000000000000000000000000008E
:1012600000000000FF00000000FF00FF0000FF0082
:101270000000FF000000000000000000000000006F
:10128000000000000000000000000000000000005E
:10129000000000000000000000000000000000004E
:1012A000000000000000000000000000000000003E
:1012B000000000000000000000000000000000002E
:1012C000000000000000000000000000000000001E
:1012D000000000000000000000000000000000000E
:1012E000FFFFFFFFFF000000000000000000000003
:1012F000000000FF000000000000FF0000000000F0
:1013000000FF0000000000000000000000000000DE
:1013100000000000000000000000000000000000CD
:1013200000000000000000000000000000000000BD
:1013300000000000000000000000000000000000AD
:1013400000000000000000000000000000FFFFFFA0
:10135000000000000000FF0000FFFFFFFF00FF0093
:101360000000FF0000FFFFFFFF0000000000000082
:10137000000000000000000000000000000000006D
:101380000000000000000000FF0000000000FF005F
:1013900000000000FFFFFFFF0000FF000000FF0053
:1013A000FF000000FF00FF000000FF00FFFFFFFF45
:1013B000000000000000000000000000000000002D
:1013C000000000000000000000000000000000001D
:1013D00000000000000000000000000000FFFFFF10
:1013E0000000FF000000FF00FF0000000000FF0001
:1013F0000000FF0000FFFFFF0000000000000000F1
:1014000000000000000000000000000000000000DC
:10141000000000000000000000000000FF000000CD
:101420000000FF0000FFFFFFFF00FF000000FF00C3
:10143000FF000000FF00FF000000FF0000FFFFFFB3
:10144000FF0000000000000000000000000000009D
:10145000000000000000000000000000000000008C
:1014600000000000000000000000000000FFFFFF7F
:101470000000FF000000FF00FFFFFFFF0000FF0073
:101480000000000000FFFFFF00000000000000005F
:10149000000000000000000000000000000000004C
:1014A00000000000000000000000FFFF000000FF3F
:1014B0000000FF0000FF00000000FFFFFF00000031
:1014C00000FF0000000000FF0000000000FF00001F
:1014D000000000000000000000000000000000000C
:1014E00000000000000000000000000000000000FC
:1014F00000000000000000000000000000FFFFFFEF
:101500000000FF000000FF00FF000000FF00FF00E0
:101510000000FF0000FFFFFFFF0000000000FF00D1
:1015200000FFFFFF000000000000000000000000BE
:101530000000000000000000FF0000000000FF00AD
:1015400000000000FFFFFFFF0000FF000000FF00A1
:10155000FF000000FF00FF000000FF00FF00000090
:10156000FF0000000000000000000000000000007C
:10157000000000000000000000000000000000006B
:101580000000FF00000000000000000000FFFF005E
:1015900000000000FF0000000000FF00000000004D
:1015A000FF00000000FFFFFF00000000000000003F
:1015B000000000000000000000000000000000002B
:1015C000000000000000000000000000FF0000001C
:1015D00000000000000000FFFF0000000000FF000E
:1015E00000000000FF0000000000FF0000000000FD
:1015F000FF0000FF0000FF000000FFFF00000000F0
:1016000000000000000000000000000000000000DA
:10161000FF0000000000FF0000000000FF000000CD
:10162000FF00FF0000FF0000FFFFFF000000FF00C1
:1016300000FF0000FF000000FF00000000000000AD
:10164000000000000000000000000000000000009A
:10165000000000000000000000FFFF00000000008C
:10166000FF0000000000FF0000000000FF0000007D
:101670000000FF0000000000FF00000000FFFFFF6F
:10168000000000000000000000000000000000005A
:10169000000000000000000000000000000000004A
:1016A000000000000000000000000000FFFF00FF3D
:1016B0000000FF00FF00FF00FF00FF00FF00FF0031
:1016C000FF00FF00FF00FF00FF000000000000001F
:1016D000000000000000000000000000000000000A
:1016E00000000000000000000000000000000000FA
:1016F00000000000FF00FFFF0000FFFF0000FF00F0
:10170000FF000000FF00FF000000FF00FF000000DE
:10171000FF000000000000000000000000000000CA
:1017200000000000000000000000000000000000B9
:1017300000000000000000000000000000FFFFFFAC
:101740000000FF000000FF00FF000000FF00FF009E
:101750000000FF0000FFFFFF00000000000000008D
:101760000000000000000000000000000000000079
:101770000000000000000000000000000000000069
:1017800000000000FFFFFFFF0000FF000000FF005F
:10179000FF000000FF00FF000000FF00FFFFFFFF51
:1017A0000000FF0000000000FF000000000000003B
:1017B0000000000000000000000000000000000029
:1017C00000000000000000000000000000FFFFFF1C
:1017D000FF00FF000000FF00FF000000FF00FF000F
:1017E0000000FF0000FFFFFFFF0000000000FF00FF
:1017F00000000000FF0000000000000000000000EA
:1018000000000000000000000000000000000000D8
:1018100000000000FF00FFFF0000FFFF0000FF00CE
:10182000FF0000000000FF0000000000FF000000BB
:1018300000000000000000000000000000000000A8
:101840000000000000000000000000000000000098
:1018500000000000000000000000000000FFFFFF8B
:10186000FF00FF000000000000FFFFFF000000007D
:101870000000FF00FFFFFFFF00000000000000006D
:101880000000000000000000000000000000000058
:1018900000000000000000000000FF000000000049
:1018A000FF000000FFFFFFFFFF000000FF0000003F
:1018B0000000FF0000000000FF000000000000FF2B
:1018C000FF00000000000000000000000000000019
:1018D0000000000000000000000000000000000008
:1018E000000000000000000000000000FF000000F9
:1018F000FF00FF000000FF00FF000000FF00FF00EE
:1019000000FFFF0000FFFF00FF00000000000000DC
:1019100000000000000000000000000000000000C7
:1019200000000000000000000000000000000000B7
:1019300000000000FF000000FF00FF000000FF00AB
:10194000FF000000FF0000FF00FF00000000FF009C
:101950000000000000000000000000000000000087
:101960000000000000000000000000000000000077
:10197000000000000000000000000000FF00000068
:10198000FF00FF000000FF00FF00FF00FF00FF005E
:10199000FF00FF0000FF00FF00000000000000004B
:1019A0000000000000000000000000000000000037
:1019B0000000000000000000000000000000000027
:1019C00000000000FF000000FF0000FF00FF00001B
:1019D0000000FF00000000FF00FF0000FF0000000B
:1019E000FF000000000000000000000000000000F8
:1019F00000000000000000000000000000000000E7
:101A0000000000000000000000000000FF000000D7
:101A1000FF00FF000000FF00FF000000FF0000FFCC
:101A200000FF00000000FF00000000FF00000000B9
:101A3000FF000000000000000000000000000000A7
:101A40000000000000000000000000000000000096
:101A500000000000FFFFFFFFFF00000000FF00008C
:101A60000000FF00000000FF00000000FFFFFFFF7C
:101A7000FF00000000000000000000000000000067
:101A800000000000000000000000000000FF000057
:101A90000000FF0000000000FF0000000000FF0049
:101AA000000000FF000000000000FF000000000038
:101AB000FF0000000000FF000000000000FF000029
:101AC0000000000000000000000000000000000016
:101AD00000000000FF0000000000FF000000000008
:101AE000FF0000000000FF0000000000FF000000F9
:101AF0000000FF0000000000FF0000000000FF00E9
:101B000000000000FF0000000000000000000000D6
:101B10000000000000000000000000FF00000000C6
:101B20000000FF0000000000FF0000000000FF00B8
:101B30000000000000FF00000000FF0000000000A7
:101B4000FF0000000000FF00000000FF0000000098
:101B50000000000000000000000000000000000085
:101B60000000000000000000000000000000000075
:101B70000000000000FF0000FF00FF00FF00FF006A
:101B8000FF0000FF00000000000000000000000057
:101B90000000000000000000000000000000000045
:101BA0000000000057656C636F6D6520746F2047FF
:101BB000616D6500506C6561736520656E6A6F7953
:101BC0002047616D65005550202D2053746172745B
:101BD0002047616D6500444F574E202D20496E739C
:101BE0007472756374696F6E7300506C65617365B0
:101BF00000436F6C6C6563742066616C6C696E6722
:101C0000206172746566616374730041766F696404
:101C1000206172746566616374206C6F76696E67AB
:101C200020426F737300352061727465666163745E
:101C300073206769766520796F752031206D6F6E2E
:101C4000657900436F6C6C656374203230206D6F72
:101C50006E657920746F206765742074686F726E8A
:101C6000732061726D6F75720052756E20696E74AB
:101C70006F20626F737320746F206B696C6C2068C7
:101C8000696D20776974682074686F726E7300558F
:101C900050202D2053746172742047616D6500419E
:101CA0007274656661637473004275792054686F5D
:101CB000726E73202D2045004865616C7468004584
:101CC0006E656D794865616C7468004D6F6E6579FD
:101CD000000011241FBECFEFD0E1DEBFCDBF11E069
:101CE000A0E0B1E0ECE7F1E402C005900D92A8316C
:101CF000B107D9F729E0A8E1B1E001C01D92AD3BE1
:101D0000B207E1F714BE0FB6F894A8958091600071
:101D1000886180936000109260000FBEF89480E9A3
:101D200090E042EC50E0FC0125913491F901FF274D
:101D30003083029648175907B1F70E94F2118111BA
:101D400002C00E94D011E5E0F7E080E8819399E0BD
:101D5000E131F907D9F785E097E090931209809374
:101D600011091092130981E080932A0980932B09AD
:101D7000809329091092160910921C0910922209C9
:101D8000109228091092F0061092F20692E19093B8
:101D9000F10698ED9093F80694E19093F70610926F
:101DA000FC061092FB06109200071092FF0680932B
:101DB00015090E94011B78940E94001B0E94AB1B16
:101DC0000C94BC200C94000030E03A95F1F731EC13
:101DD0003A95F1F7C8E1D1E008EDA02E662776E04C
:101DE0002DD13BE23A95F1F70E941C0F31E13A9573
:101DF000F1F7AA9489F0C89563956C3029F033E027
:101E00003A95F1F70000ECCF6627002430E5C30FC8
:101E1000D01DC8950000E4CF35E03A95F1F700C039
:101E20000DD1E091F20642E0E427E160E093F20692
:101E3000E2E0E09336000895DE014D915D91679FE9
:101E4000C001480F591FFA0128E2059108B94D91C8
:101E5000059108B95D91059108B900C0059108B9CF
:101E6000480F591F059108B90591FA012A9508B93B
:101E700061F7C895002708B908950F921F92EF9354
:101E8000FF93FFB7E0918400FF93E2FD04C0E1FD02
:101E900002C0000000C0E0FF00C0E091F106EA953A
:101EA000E093F106F091F006F0FD51C0EC3098F0AF
:101EB000F3E0F0938900FDE8F0938800E0FB2898B8
:101EC00026F4E1E00E94FF10B2C0E5E1EA95F1F7E7
:101ED0000000289AACC0E63008F100C000C0289885
:101EE000E0FBE4E016F40E94FF10E4E0E09336002B
:101EF000E6E0E0936F009BC0EF93E0918400E2FD89
:101F000004C0E1FD02C0000000C0E0FF00C0E2E04C
:101F10000000289AE0936F00EF91189500C0E0FB55
:101F2000289826F4E1E00E94FF1005C0E5E1EA955B
:101F3000F1F70000289AE091F106E03009F077C04F
:101F4000EDEFE093F106E1E0E093F00670C0E7E02A
:101F5000E0938900EBE1E093880000C02898E2E07C
:101F600000C00E94FF10FDEF0090F706F019E0910D
:101F7000F106EF17D8F4FDEF0090F706F019009086
:101F8000F806F019EF1790F0EDE1FF2700800F92AF
:101F9000EA95E1F70FE10A95F1F700C00E94E40E1F
:101FA000E1E0FF270F900192EE31E0F3E091F106BE
:101FB000E03009F03CC02F933F934F935F936F93B2
:101FC0007F938F939F93AF93BF9378941124EE27C1
:101FD000E093F006E2E1E093F10680910107909131
:101FE000020701968093010790930207E091F306A0
:101FF000F091F406E115F10509F009950E94C01170
:102000000E94021B0E9429101124E091F506F09114
:10201000F606E115F10509F00995BF91AF919F9181
:102020008F917F916F915F914F913F912F91EF91A0
:10203000EFBFFF91EF911F900F9018952898E2E065
:1020400000C00E94FF10E091F106EA95E093F106CE
:102050000895E0911509E0FD0E94B5120090130962
:10206000002019F4A5E0B7E002C0ABE0B8E021E041
:1020700002260092130922E020931409E091150929
:10208000E0FF08952F923F924F925F926F927F925E
:102090008F929F92AF92BF92CF92DF92EF92FF9278
:1020A0000F931F93CF93DF935091280960912A09D2
:1020B00070912B0980912C092090170930901809F4
:1020C00040901A0950901B09609019091091160947
:1020D00070901D0980901E0990901F09A090200902
:1020E000B090210920911C09C0902309D0902409A7
:1020F000E0902609F09027090091250930912209E6
:102100009FEF620C431CF201449141030008C12D72
:10211000D02D970CA81CF501449142030008C10D75
:10212000D01D0C0DED1CF701449143030008C10DB7
:10213000D01D8A956AF440912909842F8695062E30
:102140000694062600FA7695679576F940FF66F9BB
:1021500040E860FD4FE745030008C10DD01D002495
:10216000C038D0050CF0CFE70A94C038D0050CF485
:10217000C0E8C058CD939A9509F0C3CF4091140997
:102180004A954093140997E009F0BBCF6092190972
:1021900040921A0990921F09A092200900932509E4
:1021A000E092260960932A0970932B0980932C09E9
:1021B000DF91CF911F910F91FF90EF90DF90CF9023
:1021C000BF90AF909F908F907F906F905F904F9057
:1021D0003F902F900895E0911109F091120901911B
:1021E00000000093B30009E0E131F00705E017E0DB
:1021F00008F0F801E0931109F093120908950F9384
:102200001F932F93EF93E0911109F091120901911F
:102210000093B30009E0E131F00705E017E008F0B2
:10222000F801E0931109F0931209E8E0EA95F1F75B
:10223000EF912F911F910F91E0FD289AE0FF01C0CF
:102240000895F4E1FA95F1F700C0E1FD289AE1FF65
:1022500000C00895EAEEF2E0A8E1B1E06091EC067A
:102260007091ED066D937D933197E1F711240895F8
:102270009927552728E2220F629F880F080E191E02
:10228000A8E1B1E0A00DB11D6091EC067091ED06E2
:1022900028E4429F600D711D6D937C931124089575
:1022A0008093EC069093ED0608958091F20681707C
:1022B00008952091F2062E7F2093F2060895882338
:1022C00029F48091F9069091FA0608958091FD060F
:1022D0009091FE060895E0E6F0E0808183FD089588
:1022E00088E198E0F894808390837894FFCFF999FF
:1022F000FECF92BD81BD60BDF894FA9AF99A7894A8
:102300000895F999FECF92BD81BDF894F89A80B5F1
:1023100078940895129AC895C895C895C89512984A
:1023200040E180E090E020E030E0369527959695FA
:102330008795C895C895C895C8951398009B30682F
:10234000019B9068139AC895C895C895C895415047
:1023500061F73093FA062093F9069093FE06809376
:10236000FD068091F9069091FA060F9731F0809161
:10237000FD069091FE060F9711F40C946B110895D1
:1023800010924B09009903C081E080934B09019999
:1023900005C080914B09826080934B090C948A118F
:1023A000CF93DF93C0E0D0E0FE01E059FF4F64918E
:1023B000CE010E9477112196C032D105A9F7C0E263
:1023C000D0E06FEFCE010E9477116FEFCE01019642
:1023D0000E947711A096C11588E0D80791F7DF9188
:1023E000CF910895CF9380E090E00E948111C82F93
:1023F00081E090E00E948111282F30E0322F2227C7
:102400002C0F311D81E02A35354509F080E0CF9150
:102410000895FC0167870895E6E1F9E081E091E025
:10242000958B848B638B0895FC0182810C945915E4
:10243000FC019181690F618382810C944215FC013A
:102440009181961B692F918382810C944215FC0126
:1024500090819F7590830895FC0190819064908392
:102460000895FC01668708951F93CF93DF93EC01D5
:10247000162F8A810E94421519838881877F88835D
:10248000DF91CF911F910895FC0162870895FC01AF
:1024900063870895CF93DF93EC01262F898190E025
:1024A000FC01EE0FFF1FE451F54D45915491FC01E5
:1024B000E60FF11D67FDFA95EE0FFF1FE451F54D94
:1024C00085919491841B950B688570E00E94E91FAB
:1024D0006115710511F461E070E0EA8186E0E89F22
:1024E000F0011124EA5EF64F81819281860F971FD9
:1024F000928381837E836D838881886088838981CC
:10250000280F2F83DF91CF910895FC0160870895F4
:10251000FC0164830895DC0114968C911497882340
:1025200019F155962D913C915697662379F0062E18
:10253000000C770B6F5F7F4FAB01440F551F640F8B
:10254000751F261B370B09C0EF3F39F023503109A7
:10255000F9013297E491ED30B9F756963C932E93FA
:102560005597815014968C930895EF92FF920F9394
:102570001F93CF93DF93CEE4D9E006E119E09801F1
:10258000DE011F968C911F978823A9F01E964C910F
:102590001E97082E000C990B840F911D8F3F9105FB
:1025A00019F014F08FEF90E097FF02C080E090E008
:1025B0001E968C931E976C9163FF26C015964D91C5
:1025C0005C911697F90181819281840F951F928306
:1025D00081831796EC911797F0E0EE0FFF1FE451FF
:1025E000F54DE590F4901416150624F48E159F050C
:1025F00030F40AC0452B41F0E816F90628F0F9013D
:10260000F282E182677F6C9357962A5F3F4FF9E031
:10261000AA3ABF0709F0B5CF80910407882309F4CF
:10262000CCC087E1F82E8091AA099091AB09209146
:10263000B0093091B1098217930709F0B9C0209110
:10264000B3093091B409B9016F5F7F4F7093B4093A
:102650006093B309F90144914F3F79F5A9014E5FA9
:102660005F4F5093B4094093B309FB0164916F32FB
:1026700019F4109204079CC0663009F08CC0FA016E
:102680004491C90104969093B4098093B309F90168
:102690003396E491E33529F49093B6098093B50914
:1026A0007AC0E53409F077C08091B5099091B609F8
:1026B0009093B4098093B3096EC047FD4093AE096F
:1026C0009091AE09892F8F7047FF08C02E5F3F4F52
:1026D0003093B4092093B309FB014491907F903B60
:1026E000E1F0903C09F451C0903909F054C0E091F8
:1026F000B309F091B4099F012F5F3F4F3093B409A4
:102700002093B3092491220FF89EF0011124E25B7B
:10271000F64F60890E9402153EC0E091B309F09126
:10272000B4099F012F5F3F4F3093B4092093B30941
:10273000E491473049F4F89ED0011124A25BB64FD2
:10274000EE0F1C96EC9327C04B3049F4F89ED00155
:102750001124A25BB64FEE0F1396EC931CC04C35C0
:1027600049F4F89ED0011124A25BB64FEE0F1A96E1
:10277000EC9311C0443679F4F89ED0011124A25B89
:10278000B64FEE0F1B96EC9306C0F89EF001112495
:10279000E25BF64F408B83EB99E00E948E1490939E
:1027A000B1098093B0091092AB091092AA093BCFEE
:1027B00001969093AB098093AA09EE24EA94F12C38
:1027C000888185FF37C02D893E89232B09F432C0CB
:1027D00086FD30C09B898A8998132AC0ED89FE89BD
:1027E000BF016F5F7F4F7E8B6D8B84918F3F31F484
:1027F00088818F7788831E8A1D8A1AC03296FE8B45
:10280000ED8BFB016491E82FF0E0EE0FFF1FEE531C
:10281000FF4F25913491CE01F9010995ED89FE898B
:10282000CF0101969E8B8D8BE491EA8B1B8AD2CFD0
:102830009F5F9B8B988195FF5EC08C898F3F11F0C5
:102840008F5F8C8B97FD02C09C8501C09FEF8D85AB
:102850004985882309F449C06E85662309F445C07B
:10286000992309F442C05091AF09552309F43DC0A2
:10287000899FC00111249395892F9927689F900102
:10288000699F300D11243395232F33276B81629F6D
:10289000C001639F900D11249395892F9927589F0C
:1028A0009001599F300D11243395232F33278A85AA
:1028B0008823E9F0E42FF0E0E050F44DE491E05893
:1028C0008E9FF0011124F395EF2FFF27B7016E1BA8
:1028D0007F0B629FC001639F900D729F900D11242A
:1028E0009C013395232F332702C020E030E08B85F5
:1028F000480F498702C020E030E0F8012083679646
:102900000A5F1F4FF9E0CA3ADF0709F059CFDF919C
:10291000CF911F910F91FF90EF900895DC01ED9101
:10292000FC9111979F012F5F3F4F11963C932E937F
:10293000E491E7FD03C08E2F90E00895EF778E2F8E
:1029400090E09695982F8827979587952F5F3F4F12
:10295000F9013197E4914E2F4F77840F911DE7FDD8
:10296000F0CF2D933C9308950F931F93CF93DF9354
:10297000EC01162F8881082F00781F869FEF9E8715
:102980004D871C8A877B88831A86198629831C8237
:102990009B838A81833069F4011101C0122F81E089
:1029A00091E090932B0980932A0981E08093290973
:1029B00007C0622F0E94421560E08A810E9459156B
:1029C000002311F0198B01C0188BE091AC09F09134
:1029D000AD0989E0189FE00DF11D11243396859112
:1029E0009491009719F41E8A1D8A07C01B8AFC0166
:1029F00024912A8B01969E8B8D8BDF91CF911F9115
:102A00000F910895CF93DF93A82FB0E097E1899FAE
:102A1000F0011124E25BF64F808185FF02C087FD43
:102A20002EC0211118C097E19A9FF0019B9FF00DD5
:102A30001124E25BF64F9785911102C086FF15863F
:102A400097E19A9FF0019B9FF00D1124E25BF64FF6
:102A50008F7B808314C0822F242F97E19A9FE001FF
:102A60009B9FD00D1124C25BD64F18821E8A1D8AEF
:102A7000482FCE010E94B414888180628883DF9140
:102A8000CF91089599277727833008F00895ECEEC9
:102A9000FAE2660F771FE60FF71FA591B491E6E102
:102AA000F9E026E0289FE00DF11DA183B2831124F7
:102AB000089599277727E6E1F9E026E0289FE00DC1
:102AC000F11D6E3F31F4609129096E7F60932909F1
:102AD0000BC06F3F31F4609129096E6F6093290933
:102AE00003C07CE2760F7583112408952200240030
:102AF000260028002B002D0030003300360039005E
:102B00003D004000440048004C00510056005B006E
:102B1000600066006C0073007900810088009000FE
:102B20009900A200AC00B600C100CC00D800E500BE
:102B3000F3000101100121013201440157016C0130
:102B400081019801B001CA01E5010202210241029E
:102B500064028802AE02D7020303300361039403C8
:102B6000CB03050442048304C70410055D05AF05CB
:102B700005066106C20629079607090883080509A4
:102B80008E09200ABA0A5D0B0A0CC10C840D510E85
:102B90002B0F121007110A121D1340147415BA16C8
:102BA00014188319071BA31C571E24200E2214245B
:102BB00039267F28E82A752D293006330F36453906
:102BC000AD3C49401B442848734CFE50CF55EA5A4F
:102BD00051600C661D6C8B725A79928037885090C8
:102BE000E598FDA19FABD3B5A3C000000000000095
:102BF00000000000000000000000000000000000D5
:102C0000000306090C101316191C1F2225282B2E51
:102C1000313336393C3F414447494C4E5153555866
:102C20005A5C5E60626466686A6B6D6F7071737423
:102C3000757678797A7A7B7C7D7D7E7E7E7F7F7FDC
:102C40007F7F7F7F7E7E7E7D7D7C7B7A7A797876C2
:102C500075747371706F6D6B6A68666462605E5CD8
:102C60005A585553514E4C494744413F3C393633ED
:102C7000312E2B2825221F1C191613100C090603B0
:102C800000FDFAF7F4F0EDEAE7E4E1DEDBD8D5D2B7
:102C9000CFCDCAC7C4C1BFBCB9B7B4B2AFADABA882
:102CA000A6A4A2A09E9C9A9896959391908F8D8CA5
:102CB0008B8A8887868685848383828282818181CC
:102CC0008181818182828283838485868687888AC6
:102CD0008B8C8D8F9091939596989A9C9EA0A2A490
:102CE000A6A8ABADAFB2B4B7B9BCBFC1C4C7CACD5B
:102CF000CFD2D5D8DBDEE1E4E7EAEDF0F4F7FAFD78
:102D0000808182838485868788898A8B8C8D8E8F4B
:102D1000909192939495969798999A9B9C9D9E9F3B
:102D2000A0A1A2A3A4A5A6A7A8A9AAABACADAEAF2B
:102D3000B0B1B2B3B4B5B6B7B8B9BABBBCBDBEBF1B
:102D4000C0C1C2C3C4C5C6C7C8C9CACBCCCDCECF0B
:102D5000D0D1D2D3D4D5D6D7D8D9DADBDCDDDEDFFB
:102D6000E0E1E2E3E4E5E6E7E8E9EAEBECEDEEEFEB
:102D7000F0F1F2F3F4F5F6F7F8F9FAFBFCFDFEFFDB
:102D8000000102030405060708090A0B0C0D0E0FCB
:102D9000101112131415161718191A1B1C1D1E1FBB
:102DA000202122232425262728292A2B2C2D2E2FAB
:102DB000303132333435363738393A3B3C3D3E3F9B
:102DC000404142434445464748494A4B4C4D4E4F8B
:102DD000505152535455565758595A5B5C5D5E5F7B
:102DE000606162636465666768696A6B6C6D6E6F6B
:102DF000707172737475767778797A7B7C7D7E7F5B
:102E000000020406080A0C0E10121416181A1C1ED2
:102E100020222426282A2C2E30323436383A3C3EC2
:102E200040424446484A4C4E50525456585A5C5EB2
:102E300060626466686A6C6E70727476787A7C7EA2
:102E40007F7D7B79777573716F6D6B696765636182
:102E50005F5D5B59575553514F4D4B494745434172
:102E60003F3D3B39373533312F2D2B292725232162
:102E70001F1D1B19171513110F0D0B090705030152
:102E8000FFFDFBF9F7F5F3F1EFEDEBE9E7E5E3E142
:102E9000DFDDDBD9D7D5D3D1CFCDCBC9C7C5C3C132
:102EA000BFBDBBB9B7B5B3B1AFADABA9A7A5A3A122
:102EB0009F9D9B99979593918F8D8B898785838112
:102EC00080828486888A8C8E90929496989A9C9E12
:102ED000A0A2A4A6A8AAACAEB0B2B4B6B8BABCBE02
:102EE000C0C2C4C6C8CACCCED0D2D4D6D8DADCDEF2
:102EF000E0E2E4E6E8EAECEEF0F2F4F6F8FAFCFEE2
:102F00007F7F7F7F7F7F7F7F7F7F7F7F7F7F7F7FD1
:102F10007F7F7F7F7F7F7F7F7F7F7F7F7F7F7F7FC1
:102F20007F7F7F7F7F7F7F7F7F7F7F7F7F7F7F7FB1
:102F30007F7F7F7F7F7F7F7F7F7F7F7F7F7F7F7FA1
:103200000309131E28313A40464C5054585B5E6106
:10321000636567696B6C6E6F7071727374757677C6
:10322000777879797A7A7B7B7C7C7C7D7D7D7E7EEC
:103230007E7E7F7F7F7F7F7F7F7F7F7F7F7F7F7FA0
:103240007F7F7F7F7F7F7F7F7F7F7F7F7F7E7E7E91
:103250007E7D7D7D7C7C7C7B7B7A7A7979787777C3
:10326000767574737271706F6E6C6B69676563618C
:103270005E5B5854504C46403A31281E13090300F7
:10328000C6CCD5DBDFE3E5E7E9EAEBECEDEEEFEF0B
:10329000F0F0F0F1F1F1F1F2F2F2F2F2F2F2F2F317
:1032A000F3F3F3F3F3F3F3F3F3F3F3F3F3F3F3F3EE
:1032B000F3F3F3F3F3F3F3F3F3F3F3F3F3F3F3F3DE
:1032C000F3F3F3F3F3F3F3F3F3F3F3F3F3F3F3F3CE
:1032D000F3F3F3F3F3F3F3F3F3F3F3F3F3F3F3F3BE
:1032E000F2F2F2F2F2F2F2F2F1F1F1F1F0F0F0EFCB
:1032F000EFEEEDECEBEAE9E7E5E3DFDBD5CCC6008A
:1033000000283D42302D2C2B2C2D2E2F30323335E2
:1033100037393B3D3F414345484A4C4E5053555742
:10332000595B5D5F61636567696B6C6E7071737427
:10333000757778797A7B7C7D7D7E7E7F7F7F7F7FCE
:103340007F7F7F7F7F7F7E7E7D7D7C7B7A797877B4
:1033500075747371706E6C6B69676563615F5D5BDB
:1033600059575553504E4C4A484543413F3D3B39D0
:1033700037353332302F2E2D2C2B2C2D30423D283B
:1033800000E9E5FED4D7D7D7D6D4D2D0CECCCAC8A0
:10339000C6C3C1BFBDBAB8B6B4B1AFADABA9A7A5DE
:1033A000A3A19F9E9C9A999795949391908F8D8CB1
:1033B0008B8A8988888786858584848483838383B0
:1033C0008383838383848484858586878888898AA8
:1033D0008B8C8D8F909193949597999A9C9E9FA199
:1033E000A3A5A7A9ABADAFB1B4B6B8BABDBFC1C3B1
:1033F000C6C8CACCCED0D2D4D6D7D7D7D4FEE5E96A
:10340000F9F8F9F5EBE1DDDEE0E2E4E5E6E5E4E23A
:10341000DED9D2CAC1B7ACA299918A868381808055
:103420008182838586888A8C8D8F909293959697DA
:1034300098999A9B9B9C9D9D9D9E9E9E9F9F9F9FC2
:103440009F9F9F9E9E9E9D9D9D9C9B9B9A999897BA
:1034500096959392908F8D8C8A88868583828180C1
:10346000808183868A9199A2ACB7C1CAD2D9DEE2A3
:10347000E4E5E6E5E4E2E0DEDDE1EBF5F9F8F900AC
:103480000708070B151F2322201E1C1B1A1B1C1EBE
:1034900022272E363F49545E676F767A7E7F7F7F84
:1034A0007F7E7D7B7A7876747371706E6D6B6A69DE
:1034B00068676665656464636362626261616161D5
:1034C00061616162626263636364656566676869BE
:1034D0006A6B6D6E7071737476787A7B7D7E7F7F98
:1034E0007F7F7E7A766F675E54493F362E27221E95
:1034F0001C1B1A1B1C1E2022231F150B070807006C
:103500001F313D444E5354565A5F64696E74767948
:103510007C7F7F7F7F7F7F7F7F7F7F7F7F7F7F7FBE
:103520007F7F7F7F7F7F7F7F7F7F7F7F7F7F7F7FAB
:103530007F7F7F7F7F7F7F7F7F7F7F7F7F7F7F7F9B
:103540007F7F7F7F7F7F7F7F7F7F7F7F7F7F7F7F8B
:103550007F7F7F7F7F7F7F7F7F7F7F7F7F7F7F7F7B
:103560007F7F7F7F7F7F7F7F7F7F7F7F7F7F7F7F6B
:103570007F7F7F7F7F7F7F7F7F7F7F7C7871684CBD
:103580002C1C120C0A0B0A05FDF3E9DFD4CAC0B7E4
:10359000AEA69E97918B8685828080808080808079
:1035A000808080808080808080808080808080801B
:1035B000808080808080808080808080808080800B
:1035C00080808080808080808080808080808080FB
:1035D00080808080808080808080808080808080EB
:1035E00080808080808080808080808080808080DB
:1035F000808080808087919DACC4CBD4DDF2FAFAC4
:10360000089508950C947A1BCF92DF92EF92FF9267
:103610000F931F93CF93DF93C82ED62F8A01D22EFC
:10362000C0E08AE0E82EF12C2C2D2C1B0115110591
:1036300011F4C11107C0C801B7010E94D51F40E1B4
:10364000480F05C0DD2011F040E101C040E06D2FC2
:10365000822F0E943811C801B7010E94D51F8B012B
:10366000CF5FC53009F7DF91CF911F910F91FF9088
:10367000EF90DF90CF900895DF92EF92FF920F933B
:103680001F93CF93DF937C01D62E8A01EC01FE01BC
:10369000EE19FF09E00FF11FE491EE2349F0EF77F7
:1036A00040EE4E0F6D2D8C2F0E9438112196EFCFDA
:1036B000DF91CF911F910F91FF90EF90DF900895D0
:1036C00040520C9438110F931F93CF93DF938C01CA
:1036D000C0E0D0E0C017D10744F40E945511882300
:1036E000E1F30E9459112196F5CFDF91CF911F91FF
:1036F0000F9108958091BA09882301F18091BB0947
:10370000811119C08091B8098093BB09E091BC096F
:10371000F0E0E152FF4FE491E7B99091BC0980914C
:10372000B909890F8093BC09882311F08D3031F4D9
:103730001092BA09089581508093BB090895860FAD
:1037400099270895860F99270895860F9927089538
:10375000862F992708958CEE90E00E9450110E94C8
:10376000D61B81E090E00E94631B80E00E945F1105
:1037700090934409809343092091490930914A0963
:10378000A9014095509548235923509346094093E9
:1037900045098095909582239323909348098093BF
:1037A00047090E94141C0E94EE1DDBCF0F931F934C
:1037B000CF93DF930E946B2008E210E0B8010E94D3
:1037C000E91F90932F0980932E090E946B20C2E17C
:1037D000D0E0BE010E94E91F909331098093300927
:1037E00010923509109234090E946B20BE010E948C
:1037F000E91F90933309809332090E946B20BE0128
:103800000E94E91F90933909809338090E946B2028
:10381000B8010E94E91F9093370980933609DF9120
:10382000CF911F910F910895AF92BF92CF92DF92E7
:10383000EF92FF920F931F93CF93DF9380914509EF
:10384000909146098032910599F15CF4823091059E
:1038500009F441C080319105A1F0019709F041C000
:1038600032C080389105B9F124F48034910571F1AA
:1038700038C0811521E0920709F18115924031F19C
:1038800030C0C0914109C11108C0609112018C2F54
:103890000E94A81B8093410924C06FEF7FEF80E056
:1038A00090E00E94251F809142098111EECF19C03E
:1038B00080914109882309F47AC105C06FEF7FEF39
:1038C00080E090E00CC061E070E0FACF60E070E072
:1038D0008FEF9FEF04C060E070E081E090E00E9415
:1038E000251F809143099091440990934A09809340
:1038F000490980914109882309F465C120913A0959
:1039000030913B092F5F3F4F30933B0920933A0999
:1039100080910C0190910D01821793070CF040C02B
:10392000209136093091370940912E0950912F0985
:103930002417350734F42F5F3F4F30933709209316
:10394000360920913609309137094217530734F46C
:1039500021503109309337092093360920913809D5
:1039600030913909409130095091310924173507B8
:1039700034F42F5F3F4F3093390920933809209159
:103980003809309139094217530734F4215031096D
:10399000309339092093380910923B0910923A0963
:1039A00020913C0930913D09243031052CF0181646
:1039B00019066CF4019707C0232B49F41816190651
:1039C00034F08CE291E090930D0180930C01809192
:1039D0003409909135090196909335098093340903
:1039E000409106015091070122E130E0241B350B84
:1039F00082179307ACF08091040190910501C8E211
:103A0000D0E0C81BD90B0E946B20BE010E94E91FA9
:103A1000909333098093320910923509109234093A
:103A2000A0900601B0900701C0900401D09005015C
:103A3000E0903409F0903509009132091091330972
:103A40002091020130910301409100015091010148
:103A5000609130097091310980912E0990912F0960
:103A60000E94FE1E8823C1F161E070E080913C0954
:103A700090913D090E94A21B90933D0980933C09BF
:103A800085309105A4F06BEF7FEF0E94A21B90930D
:103A90003D0980933C0961E070E080913E0990917E
:103AA0003F090E94A51B90933F0980933E09809196
:103AB000040190910501C8E2D0E0C81BD90B0E9417
:103AC0006B20BE010E94E91F909333098093320955
:103AD0001092350910923409A0900A01B0900B01A0
:103AE000C0900801D0900901E0903809F0903909A0
:103AF000009136091091370920910201309103019C
:103B0000409100015091010160913009709131099B
:103B100080912E0990912F090E94FE1E8823C1F1E9
:103B20006FEF7FEF80913C0990913D090E94A21BAD
:103B300090933D0980933C096FEF7FEF80910E01D8
:103B400090910F010E949F1B90930F0180930E0193
:103B500080913C0990913D091816190624F01092A5
:103B60003D0910923C098091080190910901C8E239
:103B7000D0E0C81BD90B0E946B20BE010E94E91F38
:103B800090933709809336091092390910923809B9
:103B900080913E0990913F090597A9F46091120127
:103BA000809140090E94A81B809340090CC080911D
:103BB0004209811196CE6091120180E00E94A81BFB
:103BC000809342098ECEDF91CF911F910F91FF908C
:103BD000EF90DF90CF90BF90AF9008950F930E9429
:103BE0002A118091410981115BC0809142098111A4
:103BF00027C044EA5BE163E070E08DE090E00E9462
:103C00003C1B44EB5BE165E070E08CE090E00E94DF
:103C10003C1B46EC5BE169E070E08DE090E00E94C7
:103C20003C1B46ED5BE16BE070E08CE090E00E94B5
:103C30003C1B4AEE5BE160E170E081E190E02EC068
:103C400041EF5BE163E070E088E090E00E943C1BA4
:103C50004BE05CE165E070E087E090E00E943C1B97
:103C600046E25CE167E070E086E090E00E943C1B89
:103C700043E45CE169E070E082E090E00E943C1B7C
:103C800049E65CE16BE070E082E090E00E943C1B62
:103C90004FE85CE16FE070E08DE090E00E943C1B3B
:103CA00080914109882309F4A7C04FE95CE160E0F5
:103CB00070E081E090E00E943C1B40913C095091F3
:103CC0003D0920E060E070E08EE090E00E94041B7F
:103CD00080914009882341F049EA5CE16FE070E09F
:103CE00089E190E00E943C1B40912E0950912F09E0
:103CF00020E060E070E083E190E00E94041B4091CE
:103D000030095091310920E060E070E088E190E0F6
:103D10000E94041B48EB5CE160E070E08BE190E006
:103D20000E943C1B40910E0150910F0120E060E089
:103D300070E085E290E00E94041B4FEB5CE161E1E2
:103D400070E081E090E00E943C1B40911001509196
:103D5000110120E061E170E080E190E00E94041B2D
:103D60004BEC5CE161E170E08BE190E00E943C1B78
:103D700040913E0950913F0920E061E170E085E209
:103D800090E00E94041B20910201309103014091B8
:103D9000000150910101609130097091310900E3F7
:103DA00080912E0990912F090E946B1F209106018E
:103DB000309107014091040150910501609134094F
:103DC0007091350904E280913209909133090E9483
:103DD0006B1F20910A0130910B0140910801509115
:103DE0000901609138097091390908E58091360917
:103DF000909137090E946B1F0F910895AF92BF9267
:103E0000CF92DF92EF92FF920F931F93480F591FAB
:103E10004017510784F0260F371F2E153F055CF021
:103E2000C00ED11EC816D90634F0AE0CBF1C81E0FE
:103E3000A616B7060CF480E01F910F91FF90EF904B
:103E4000DF90CF90BF90AF900895EF92FF920F93C5
:103E50001F93CF93DF9300912E0910912F09F80142
:103E6000E80FF91FF0932F09E0932E09C091300954
:103E7000D09131099E01260F371F309331092093CD
:103E80003009F7FD19C0E0900001F090010186E0D3
:103E900090E0B7010E94E91FE60FF71FB89764F49E
:103EA00037FD0AC08CE090E0B7010E94E91F260FA1
:103EB000371F2231310544F010932F0900932E094A
:103EC000D0933109C0933009DF91CF911F910F91A9
:103ED000FF90EF9008955F926F927F928F929F92E2
:103EE000AF92BF92CF92DF92EF92FF920F931F9308
:103EF000CF93DF93883291050CF047C06231710592
:103F00000CF043C0502E4901EA017B018C013C01B9
:103F10006B01C20ED31E560181E0A81AB108C3017D
:103F2000801B910B8C179D07B4F488E2681671040E
:103F30002CF4452DB701C3010E94601B83E1C81614
:103F4000D1042CF4452DB501C3010E94601B8FEFF5
:103F5000681A780AE4CFCC24C394D12CC00FD11FA7
:103F60002197C814D9048CF45701AC0CBD1C452D05
:103F7000B501C8010E94601B452DB501CE010E940C
:103F8000601B8FEFC81AD80AECCFDF91CF911F9139
:103F90000F91FF90EF90DF90CF90BF90AF909F90E8
:103FA0008F907F906F905F900895AA1BBB1B51E18B
:103FB00007C0AA1FBB1FA617B70710F0A61BB70B99
:103FC000881F991F5A95A9F780959095BC01CD013E
:103FD000089597FB072E16F4009407D077FD09D0BB
:103FE0000E94D51F07FC05D03EF4909581959F4F08
:103FF0000895709561957F4F0895A1E21A2EAA1B2E
:10400000BB1BFD010DC0AA1FBB1FEE1FFF1FA21788
:10401000B307E407F50720F0A21BB30BE40BF50B85
:10402000661F771F881F991F1A9469F7609570950E
:10403000809590959B01AC01BD01CF0108958F92B1
:104040009F92AF92BF92CF92DF92EF92FF92CF9367
:10405000DF93EC01688179818A819B81611571050B
:104060008105910521F464E279ED8BE597E02DE17E
:1040700033EF41E050E00E947B2049015A019B014F
:10408000AC01A7EAB1E40E949A206B017C01ACEE7E
:10409000B4EFA50194010E94A820DC01CB018C0D96
:1040A0009D1DAE1DBF1DB7FF03C00197A109B048FC
:1040B00088839983AA83BB839F77DF91CF91FF90F9
:1040C000EF90DF90CF90BF90AF909F908F9008952A
:1040D0000E941F20089583E191E00E941F2008950F
:1040E000A0E0B0E08093130190931401A093150118
:1040F000B09316010895052E97FB1EF400940E94BC
:10410000922057FD07D00E94FD1F07FC03D04EF4FC
:104110000C94922050954095309521953F4F4F4FEC
:104120005F4F089590958095709561957F4F8F4F63
:104130009F4F08950E94AD20A59F900DB49F900DB4
:10414000A49F800D911D11240895B7FF0C949A200F
:104150000E949A20821B930B0895A29FB001B39FE7
:10416000C001A39F700D811D1124911DB29F700D80
:0C417000811D1124911D0895F894FFCFCB
:10417C000300030003000300050003002C0164008E
:08418C006400010100000000C5
:00000001FF
